{
  "_format": "hh3-artifact-1",
  "contractName": "Lottery",
  "sourceName": "contracts/Lottery.sol",
  "abi": [
    {
      "inputs": [
        {
          "internalType": "uint256",
          "name": "initialSupply",
          "type": "uint256"
        }
      ],
      "stateMutability": "nonpayable",
      "type": "constructor"
    },
    {
      "anonymous": false,
      "inputs": [
        {
          "indexed": true,
          "internalType": "address",
          "name": "previousOwner",
          "type": "address"
        },
        {
          "indexed": true,
          "internalType": "address",
          "name": "newOwner",
          "type": "address"
        }
      ],
      "name": "OwnershipTransferred",
      "type": "event"
    },
    {
      "anonymous": false,
      "inputs": [
        {
          "indexed": true,
          "internalType": "uint256",
          "name": "roundId",
          "type": "uint256"
        },
        {
          "indexed": true,
          "internalType": "address",
          "name": "buyer",
          "type": "address"
        },
        {
          "indexed": false,
          "internalType": "uint256",
          "name": "ticketId",
          "type": "uint256"
        }
      ],
      "name": "TicketPurchased",
      "type": "event"
    },
    {
      "anonymous": false,
      "inputs": [
        {
          "indexed": true,
          "internalType": "uint256",
          "name": "roundId",
          "type": "uint256"
        },
        {
          "indexed": true,
          "internalType": "address",
          "name": "winner",
          "type": "address"
        },
        {
          "indexed": false,
          "internalType": "uint256",
          "name": "prize",
          "type": "uint256"
        }
      ],
      "name": "WinnerSelected",
      "type": "event"
    },
    {
      "inputs": [],
      "name": "balanceEthersSC",
      "outputs": [
        {
          "internalType": "uint256",
          "name": "",
          "type": "uint256"
        }
      ],
      "stateMutability": "view",
      "type": "function"
    },
    {
      "inputs": [
        {
          "internalType": "address",
          "name": "owner",
          "type": "address"
        }
      ],
      "name": "balanceTokens",
      "outputs": [
        {
          "internalType": "uint256",
          "name": "",
          "type": "uint256"
        }
      ],
      "stateMutability": "view",
      "type": "function"
    },
    {
      "inputs": [],
      "name": "balanceTokensSC",
      "outputs": [
        {
          "internalType": "uint256",
          "name": "",
          "type": "uint256"
        }
      ],
      "stateMutability": "view",
      "type": "function"
    },
    {
      "inputs": [
        {
          "internalType": "uint256",
          "name": "ticketNum",
          "type": "uint256"
        }
      ],
      "name": "buyTickets",
      "outputs": [],
      "stateMutability": "nonpayable",
      "type": "function"
    },
    {
      "inputs": [
        {
          "internalType": "uint256",
          "name": "_numTokens",
          "type": "uint256"
        }
      ],
      "name": "buyTokens",
      "outputs": [],
      "stateMutability": "payable",
      "type": "function"
    },
    {
      "inputs": [],
      "name": "currentRound",
      "outputs": [
        {
          "internalType": "uint256",
          "name": "",
          "type": "uint256"
        }
      ],
      "stateMutability": "view",
      "type": "function"
    },
    {
      "inputs": [],
      "name": "generateWinner",
      "outputs": [],
      "stateMutability": "nonpayable",
      "type": "function"
    },
    {
      "inputs": [
        {
          "internalType": "address",
          "name": "user",
          "type": "address"
        }
      ],
      "name": "isOwner",
      "outputs": [
        {
          "internalType": "bool",
          "name": "",
          "type": "bool"
        }
      ],
      "stateMutability": "view",
      "type": "function"
    },
    {
      "inputs": [
        {
          "internalType": "address",
          "name": "user",
          "type": "address"
        }
      ],
      "name": "myTicketCodesCurrent",
      "outputs": [
        {
          "internalType": "uint256[]",
          "name": "",
          "type": "uint256[]"
        }
      ],
      "stateMutability": "view",
      "type": "function"
    },
    {
      "inputs": [
        {
          "internalType": "address",
          "name": "user",
          "type": "address"
        }
      ],
      "name": "myTicketsCurrent",
      "outputs": [
        {
          "internalType": "uint256[]",
          "name": "",
          "type": "uint256[]"
        }
      ],
      "stateMutability": "view",
      "type": "function"
    },
    {
      "inputs": [],
      "name": "nextTicketTokenId",
      "outputs": [
        {
          "internalType": "uint256",
          "name": "",
          "type": "uint256"
        }
      ],
      "stateMutability": "view",
      "type": "function"
    },
    {
      "inputs": [],
      "name": "owner",
      "outputs": [
        {
          "internalType": "address",
          "name": "",
          "type": "address"
        }
      ],
      "stateMutability": "view",
      "type": "function"
    },
    {
      "inputs": [
        {
          "internalType": "uint256",
          "name": "",
          "type": "uint256"
        },
        {
          "internalType": "uint256",
          "name": "",
          "type": "uint256"
        }
      ],
      "name": "participantsByRound",
      "outputs": [
        {
          "internalType": "address",
          "name": "",
          "type": "address"
        }
      ],
      "stateMutability": "view",
      "type": "function"
    },
    {
      "inputs": [],
      "name": "renounceOwnership",
      "outputs": [],
      "stateMutability": "nonpayable",
      "type": "function"
    },
    {
      "inputs": [
        {
          "internalType": "uint256",
          "name": "_numTokens",
          "type": "uint256"
        }
      ],
      "name": "returnTokens",
      "outputs": [],
      "stateMutability": "payable",
      "type": "function"
    },
    {
      "inputs": [
        {
          "internalType": "uint256",
          "name": "",
          "type": "uint256"
        }
      ],
      "name": "rounds",
      "outputs": [
        {
          "internalType": "address",
          "name": "winner",
          "type": "address"
        },
        {
          "internalType": "uint256",
          "name": "prize",
          "type": "uint256"
        },
        {
          "internalType": "uint256",
          "name": "timestamp",
          "type": "uint256"
        },
        {
          "internalType": "uint256",
          "name": "ticketCount",
          "type": "uint256"
        },
        {
          "internalType": "uint256",
          "name": "winningTokenId",
          "type": "uint256"
        },
        {
          "internalType": "uint256",
          "name": "winningTicketCode",
          "type": "uint256"
        }
      ],
      "stateMutability": "view",
      "type": "function"
    },
    {
      "inputs": [
        {
          "internalType": "uint256",
          "name": "",
          "type": "uint256"
        }
      ],
      "name": "ticketCodeByTokenId",
      "outputs": [
        {
          "internalType": "uint256",
          "name": "",
          "type": "uint256"
        }
      ],
      "stateMutability": "view",
      "type": "function"
    },
    {
      "inputs": [],
      "name": "ticketNFT",
      "outputs": [
        {
          "internalType": "contract LotteryTicket",
          "name": "",
          "type": "address"
        }
      ],
      "stateMutability": "view",
      "type": "function"
    },
    {
      "inputs": [
        {
          "internalType": "uint256",
          "name": "",
          "type": "uint256"
        },
        {
          "internalType": "uint256",
          "name": "",
          "type": "uint256"
        }
      ],
      "name": "ticketOwner",
      "outputs": [
        {
          "internalType": "address",
          "name": "",
          "type": "address"
        }
      ],
      "stateMutability": "view",
      "type": "function"
    },
    {
      "inputs": [],
      "name": "ticketPrice",
      "outputs": [
        {
          "internalType": "uint256",
          "name": "",
          "type": "uint256"
        }
      ],
      "stateMutability": "view",
      "type": "function"
    },
    {
      "inputs": [
        {
          "internalType": "uint256",
          "name": "",
          "type": "uint256"
        },
        {
          "internalType": "uint256",
          "name": "",
          "type": "uint256"
        }
      ],
      "name": "ticketsByRound",
      "outputs": [
        {
          "internalType": "uint256",
          "name": "",
          "type": "uint256"
        }
      ],
      "stateMutability": "view",
      "type": "function"
    },
    {
      "inputs": [
        {
          "internalType": "uint256",
          "name": "roundId",
          "type": "uint256"
        },
        {
          "internalType": "address",
          "name": "user",
          "type": "address"
        }
      ],
      "name": "ticketsByUserInRound",
      "outputs": [
        {
          "internalType": "uint256[]",
          "name": "",
          "type": "uint256[]"
        }
      ],
      "stateMutability": "view",
      "type": "function"
    },
    {
      "inputs": [],
      "name": "token",
      "outputs": [
        {
          "internalType": "contract LotteryToken",
          "name": "",
          "type": "address"
        }
      ],
      "stateMutability": "view",
      "type": "function"
    },
    {
      "inputs": [],
      "name": "tokensInCirculation",
      "outputs": [
        {
          "internalType": "uint256",
          "name": "",
          "type": "uint256"
        }
      ],
      "stateMutability": "view",
      "type": "function"
    },
    {
      "inputs": [],
      "name": "totalParticipants",
      "outputs": [
        {
          "internalType": "uint256",
          "name": "",
          "type": "uint256"
        }
      ],
      "stateMutability": "view",
      "type": "function"
    },
    {
      "inputs": [
        {
          "internalType": "uint256",
          "name": "round",
          "type": "uint256"
        }
      ],
      "name": "totalParticipantsByRound",
      "outputs": [
        {
          "internalType": "uint256",
          "name": "",
          "type": "uint256"
        }
      ],
      "stateMutability": "view",
      "type": "function"
    },
    {
      "inputs": [],
      "name": "totalSupplyTokens",
      "outputs": [
        {
          "internalType": "uint256",
          "name": "",
          "type": "uint256"
        }
      ],
      "stateMutability": "view",
      "type": "function"
    },
    {
      "inputs": [],
      "name": "totalTicketsBought",
      "outputs": [
        {
          "internalType": "uint256",
          "name": "",
          "type": "uint256"
        }
      ],
      "stateMutability": "view",
      "type": "function"
    },
    {
      "inputs": [
        {
          "internalType": "uint256",
          "name": "roundId",
          "type": "uint256"
        }
      ],
      "name": "totalTicketsBoughtByRound",
      "outputs": [
        {
          "internalType": "uint256",
          "name": "",
          "type": "uint256"
        }
      ],
      "stateMutability": "view",
      "type": "function"
    },
    {
      "inputs": [
        {
          "internalType": "address",
          "name": "newOwner",
          "type": "address"
        }
      ],
      "name": "transferOwnership",
      "outputs": [],
      "stateMutability": "nonpayable",
      "type": "function"
    },
    {
      "inputs": [
        {
          "internalType": "uint256",
          "name": "",
          "type": "uint256"
        },
        {
          "internalType": "address",
          "name": "",
          "type": "address"
        },
        {
          "internalType": "uint256",
          "name": "",
          "type": "uint256"
        }
      ],
      "name": "userTickets",
      "outputs": [
        {
          "internalType": "uint256",
          "name": "",
          "type": "uint256"
        }
      ],
      "stateMutability": "view",
      "type": "function"
    },
    {
      "inputs": [],
      "name": "winner",
      "outputs": [
        {
          "internalType": "address",
          "name": "",
          "type": "address"
        }
      ],
      "stateMutability": "view",
      "type": "function"
    }
  ],
  "bytecode": "0x60806040526005600355600060045560016006556001600c553480156200002557600080fd5b5060405162007c2038038062007c2083398181016040528101906200004b91906200028e565b6200006b6200005f6200016660201b60201c565b6200016e60201b60201c565b80306040516200007b9062000232565b6200008892919062000316565b604051809103906000f080158015620000a5573d6000803e3d6000fd5b50600160006101000a81548173ffffffffffffffffffffffffffffffffffffffff021916908373ffffffffffffffffffffffffffffffffffffffff16021790555030604051620000f59062000240565b62000101919062000343565b604051809103906000f0801580156200011e573d6000803e3d6000fd5b50600260006101000a81548173ffffffffffffffffffffffffffffffffffffffff021916908373ffffffffffffffffffffffffffffffffffffffff1602179055505062000360565b600033905090565b60008060009054906101000a900473ffffffffffffffffffffffffffffffffffffffff169050816000806101000a81548173ffffffffffffffffffffffffffffffffffffffff021916908373ffffffffffffffffffffffffffffffffffffffff1602179055508173ffffffffffffffffffffffffffffffffffffffff168173ffffffffffffffffffffffffffffffffffffffff167f8be0079c531659141344cd1fd0a4f28419497f9722a3daafe3b4186f6b6457e060405160405180910390a35050565b61210f8062002faf83390190565b612b6280620050be83390190565b600080fd5b6000819050919050565b620002688162000253565b81146200027457600080fd5b50565b60008151905062000288816200025d565b92915050565b600060208284031215620002a757620002a66200024e565b5b6000620002b78482850162000277565b91505092915050565b620002cb8162000253565b82525050565b600073ffffffffffffffffffffffffffffffffffffffff82169050919050565b6000620002fe82620002d1565b9050919050565b6200031081620002f1565b82525050565b60006040820190506200032d6000830185620002c0565b6200033c602083018462000305565b9392505050565b60006020820190506200035a600083018462000305565b92915050565b612c3f80620003706000396000f3fe6080604052600436106101e35760003560e01c80638da5cb5b11610102578063d8aa8bea11610095578063f2fde38b11610064578063f2fde38b14610731578063f5a0d6c01461075a578063f9b4527a14610785578063fc0c546a146107c2576101e3565b8063d8aa8bea1461064f578063ddf6d6fb1461068c578063dfbf53ae146106c9578063e0db33e2146106f4576101e3565b8063b393391b116100d1578063b393391b14610591578063b39eb624146105bc578063b858bb65146105e7578063b934c38414610624576101e3565b80638da5cb5b146104d357806392ef10d8146104fe578063a26dbf2614610529578063a673049514610554576101e3565b8063540f557b1161017a578063715018a611610149578063715018a61461041257806389718584146104295780638a19c8bc146104665780638c65c81f14610491576101e3565b8063540f557b1461031e5780635708b4cf1461035b578063591c74e6146103985780635ae12d77146103d5576101e3565b80632f54bf6e116101b65780632f54bf6e1461027e57806334945100146102bb5780633610724e146102e65780633ae1786f14610302576101e3565b80631209b1f6146101e8578063188af657146102135780632e187a681461022a5780632f36663714610255575b600080fd5b3480156101f457600080fd5b506101fd6107ed565b60405161020a9190611f7d565b60405180910390f35b34801561021f57600080fd5b506102286107f3565b005b34801561023657600080fd5b5061023f610b53565b60405161024c9190611f7d565b60405180910390f35b34801561026157600080fd5b5061027c60048036038101906102779190611fc9565b610beb565b005b34801561028a57600080fd5b506102a560048036038101906102a09190612054565b611140565b6040516102b2919061209c565b60405180910390f35b3480156102c757600080fd5b506102d061117f565b6040516102dd9190611f7d565b60405180910390f35b61030060048036038101906102fb9190611fc9565b611185565b005b61031c60048036038101906103179190611fc9565b61132c565b005b34801561032a57600080fd5b5061034560048036038101906103409190611fc9565b611586565b6040516103529190611f7d565b60405180910390f35b34801561036757600080fd5b50610382600480360381019061037d91906120b7565b6115a6565b60405161038f9190612106565b60405180910390f35b3480156103a457600080fd5b506103bf60048036038101906103ba9190611fc9565b6115f4565b6040516103cc9190611f7d565b60405180910390f35b3480156103e157600080fd5b506103fc60048036038101906103f79190612054565b611614565b60405161040991906121df565b60405180910390f35b34801561041e57600080fd5b50610427611780565b005b34801561043557600080fd5b50610450600480360381019061044b9190612054565b611794565b60405161045d91906121df565b60405180910390f35b34801561047257600080fd5b5061047b61183e565b6040516104889190611f7d565b60405180910390f35b34801561049d57600080fd5b506104b860048036038101906104b39190611fc9565b611844565b6040516104ca96959493929190612201565b60405180910390f35b3480156104df57600080fd5b506104e86118a0565b6040516104f59190612106565b60405180910390f35b34801561050a57600080fd5b506105136118c9565b6040516105209190611f7d565b60405180910390f35b34801561053557600080fd5b5061053e61196c565b60405161054b9190611f7d565b60405180910390f35b34801561056057600080fd5b5061057b60048036038101906105769190612262565b61198c565b60405161058891906121df565b60405180910390f35b34801561059d57600080fd5b506105a6611a35565b6040516105b39190612301565b60405180910390f35b3480156105c857600080fd5b506105d1611a5b565b6040516105de9190611f7d565b60405180910390f35b3480156105f357600080fd5b5061060e6004803603810190610609919061231c565b611a7b565b60405161061b9190611f7d565b60405180910390f35b34801561063057600080fd5b50610639611ab9565b6040516106469190611f7d565b60405180910390f35b34801561065b57600080fd5b5061067660048036038101906106719190611fc9565b611ac1565b6040516106839190611f7d565b60405180910390f35b34801561069857600080fd5b506106b360048036038101906106ae91906120b7565b611ad9565b6040516106c09190611f7d565b60405180910390f35b3480156106d557600080fd5b506106de611b0a565b6040516106eb9190612106565b60405180910390f35b34801561070057600080fd5b5061071b600480360381019061071691906120b7565b611b30565b6040516107289190612106565b60405180910390f35b34801561073d57600080fd5b5061075860048036038101906107539190612054565b611b72565b005b34801561076657600080fd5b5061076f611bf5565b60405161077c9190611f7d565b60405180910390f35b34801561079157600080fd5b506107ac60048036038101906107a79190612054565b611d33565b6040516107b99190611f7d565b60405180910390f35b3480156107ce57600080fd5b506107d7611dd8565b6040516107e49190612390565b60405180910390f35b60035481565b6107fb611dfe565b60006008600060065481526020019081526020016000208054905090506000811161085b576040517f08c379a000000000000000000000000000000000000000000000000000000000815260040161085290612408565b60405180910390fd5b600081423360045460405160200161087593929190612491565b6040516020818303038152906040528051906020012060001c61089891906124fd565b9050600460008154809291906108ad9061255d565b9190505550600060086000600654815260200190815260200160002082815481106108db576108da6125a5565b5b906000526020600020015490506000600960006006548152602001908152602001600020600083815260200190815260200160002060009054906101000a900473ffffffffffffffffffffffffffffffffffffffff169050600047905060006064605f8361094991906125d4565b6109539190612616565b9050600081836109639190612647565b90508373ffffffffffffffffffffffffffffffffffffffff166108fc839081150290604051600060405180830381858888f193505050501580156109ab573d6000803e3d6000fd5b506109b46118a0565b73ffffffffffffffffffffffffffffffffffffffff166108fc829081150290604051600060405180830381858888f193505050501580156109f9573d6000803e3d6000fd5b506040518060c001604052808573ffffffffffffffffffffffffffffffffffffffff168152602001838152602001428152602001888152602001868152602001600d60008881526020019081526020016000205481525060076000600654815260200190815260200160002060008201518160000160006101000a81548173ffffffffffffffffffffffffffffffffffffffff021916908373ffffffffffffffffffffffffffffffffffffffff1602179055506020820151816001015560408201518160020155606082015181600301556080820151816004015560a082015181600501559050508373ffffffffffffffffffffffffffffffffffffffff166006547ffee5b04775e1cd2311ed22cd00f5d2403aff38ff6f71d6d393f51854ed6bc98684604051610b2a9190611f7d565b60405180910390a360066000815480929190610b459061255d565b919050555050505050505050565b6000600160009054906101000a900473ffffffffffffffffffffffffffffffffffffffff1673ffffffffffffffffffffffffffffffffffffffff166318160ddd6040518163ffffffff1660e01b8152600401602060405180830381865afa158015610bc2573d6000803e3d6000fd5b505050506040513d601f19601f82011682018060405250810190610be69190612690565b905090565b60008111610c2e576040517f08c379a0000000000000000000000000000000000000000000000000000000008152600401610c2590612709565b60405180910390fd5b600060035482610c3e91906125d4565b905080600160009054906101000a900473ffffffffffffffffffffffffffffffffffffffff1673ffffffffffffffffffffffffffffffffffffffff1663f9b4527a336040518263ffffffff1660e01b8152600401610c9c9190612106565b602060405180830381865afa158015610cb9573d6000803e3d6000fd5b505050506040513d601f19601f82011682018060405250810190610cdd9190612690565b1015610d1e576040517f08c379a0000000000000000000000000000000000000000000000000000000008152600401610d1590612775565b60405180910390fd5b600160009054906101000a900473ffffffffffffffffffffffffffffffffffffffff1673ffffffffffffffffffffffffffffffffffffffff166323b872dd3330846040518463ffffffff1660e01b8152600401610d7d93929190612795565b6020604051808303816000875af1158015610d9c573d6000803e3d6000fd5b505050506040513d601f19601f82011682018060405250810190610dc091906127f8565b506000600a6000600654815260200190815260200160002060003373ffffffffffffffffffffffffffffffffffffffff1673ffffffffffffffffffffffffffffffffffffffff1681526020019081526020016000208054905003610e9557600b60006006548152602001908152602001600020339080600181540180825580915050600190039060005260206000200160009091909190916101000a81548173ffffffffffffffffffffffffffffffffffffffff021916908373ffffffffffffffffffffffffffffffffffffffff1602179055505b60005b8281101561113b5760006127104233600454604051602001610ebc93929190612491565b6040516020818303038152906040528051906020012060001c610edf91906124fd565b905060046000815480929190610ef49061255d565b91905055506000600c6000815480929190610f0e9061255d565b91905055905081600d60008381526020019081526020016000208190555060086000600654815260200190815260200160002081908060018154018082558091505060019003906000526020600020016000909190919091505533600960006006548152602001908152602001600020600083815260200190815260200160002060006101000a81548173ffffffffffffffffffffffffffffffffffffffff021916908373ffffffffffffffffffffffffffffffffffffffff160217905550600a6000600654815260200190815260200160002060003373ffffffffffffffffffffffffffffffffffffffff1673ffffffffffffffffffffffffffffffffffffffff168152602001908152602001600020819080600181540180825580915050600190039060005260206000200160009091909190915055600260009054906101000a900473ffffffffffffffffffffffffffffffffffffffff1673ffffffffffffffffffffffffffffffffffffffff1663a144819433836040518363ffffffff1660e01b81526004016110a3929190612825565b600060405180830381600087803b1580156110bd57600080fd5b505af11580156110d1573d6000803e3d6000fd5b505050503373ffffffffffffffffffffffffffffffffffffffff166006547fdbaaf4c87ce30816c961a81d110622a3227ede77953d4383d514ff88ab2e0fd38360405161111e9190611f7d565b60405180910390a3505080806111339061255d565b915050610e98565b505050565b600061114a6118a0565b73ffffffffffffffffffffffffffffffffffffffff168273ffffffffffffffffffffffffffffffffffffffff16149050919050565b600c5481565b600061119082611e7c565b9050803410156111d5576040517f08c379a00000000000000000000000000000000000000000000000000000000081526004016111cc9061289a565b60405180910390fd5b60006111df6118c9565b905080831115611224576040517f08c379a000000000000000000000000000000000000000000000000000000000815260040161121b9061292c565b60405180910390fd5b600082346112329190612647565b90506000811115611285573373ffffffffffffffffffffffffffffffffffffffff166108fc829081150290604051600060405180830381858888f19350505050158015611283573d6000803e3d6000fd5b505b600160009054906101000a900473ffffffffffffffffffffffffffffffffffffffff1673ffffffffffffffffffffffffffffffffffffffff1663a9059cbb33866040518363ffffffff1660e01b81526004016112e2929190612825565b6020604051808303816000875af1158015611301573d6000803e3d6000fd5b505050506040513d601f19601f8201168201806040525081019061132591906127f8565b5050505050565b6000811161136f576040517f08c379a0000000000000000000000000000000000000000000000000000000008152600401611366906129be565b60405180910390fd5b600160009054906101000a900473ffffffffffffffffffffffffffffffffffffffff1673ffffffffffffffffffffffffffffffffffffffff1663f9b4527a336040518263ffffffff1660e01b81526004016113ca9190612106565b602060405180830381865afa1580156113e7573d6000803e3d6000fd5b505050506040513d601f19601f8201168201806040525081019061140b9190612690565b81111561144d576040517f08c379a000000000000000000000000000000000000000000000000000000000815260040161144490612a50565b60405180910390fd5b6000600160009054906101000a900473ffffffffffffffffffffffffffffffffffffffff1673ffffffffffffffffffffffffffffffffffffffff166323b872dd3330856040518463ffffffff1660e01b81526004016114ae93929190612795565b6020604051808303816000875af11580156114cd573d6000803e3d6000fd5b505050506040513d601f19601f820116820180604052508101906114f191906127f8565b905080611533576040517f08c379a000000000000000000000000000000000000000000000000000000000815260040161152a90612abc565b60405180910390fd5b3373ffffffffffffffffffffffffffffffffffffffff166108fc61155684611e7c565b9081150290604051600060405180830381858888f19350505050158015611581573d6000803e3d6000fd5b505050565b6000600b6000838152602001908152602001600020805490509050919050565b600b60205281600052604060002081815481106115c257600080fd5b906000526020600020016000915091509054906101000a900473ffffffffffffffffffffffffffffffffffffffff1681565b600060086000838152602001908152602001600020805490509050919050565b60606000600a6000600654815260200190815260200160002060008473ffffffffffffffffffffffffffffffffffffffff1673ffffffffffffffffffffffffffffffffffffffff1681526020019081526020016000208054806020026020016040519081016040528092919081815260200182805480156116b457602002820191906000526020600020905b8154815260200190600101908083116116a0575b505050505090506000815167ffffffffffffffff8111156116d8576116d7612adc565b5b6040519080825280602002602001820160405280156117065781602001602082028036833780820191505090505b50905060005b825181101561177557600d600084838151811061172c5761172b6125a5565b5b6020026020010151815260200190815260200160002054828281518110611756576117556125a5565b5b602002602001018181525050808061176d9061255d565b91505061170c565b508092505050919050565b611788611dfe565b6117926000611e98565b565b6060600a6000600654815260200190815260200160002060008373ffffffffffffffffffffffffffffffffffffffff1673ffffffffffffffffffffffffffffffffffffffff16815260200190815260200160002080548060200260200160405190810160405280929190818152602001828054801561183257602002820191906000526020600020905b81548152602001906001019080831161181e575b50505050509050919050565b60065481565b60076020528060005260406000206000915090508060000160009054906101000a900473ffffffffffffffffffffffffffffffffffffffff16908060010154908060020154908060030154908060040154908060050154905086565b60008060009054906101000a900473ffffffffffffffffffffffffffffffffffffffff16905090565b6000600160009054906101000a900473ffffffffffffffffffffffffffffffffffffffff1673ffffffffffffffffffffffffffffffffffffffff166370a08231306040518263ffffffff1660e01b81526004016119269190612106565b602060405180830381865afa158015611943573d6000803e3d6000fd5b505050506040513d601f19601f820116820180604052508101906119679190612690565b905090565b6000600b6000600654815260200190815260200160002080549050905090565b6060600a600084815260200190815260200160002060008373ffffffffffffffffffffffffffffffffffffffff1673ffffffffffffffffffffffffffffffffffffffff168152602001908152602001600020805480602002602001604051908101604052809291908181526020018280548015611a2857602002820191906000526020600020905b815481526020019060010190808311611a14575b5050505050905092915050565b600260009054906101000a900473ffffffffffffffffffffffffffffffffffffffff1681565b600060086000600654815260200190815260200160002080549050905090565b600a6020528260005260406000206020528160005260406000208181548110611aa357600080fd5b9060005260206000200160009250925050505481565b600047905090565b600d6020528060005260406000206000915090505481565b60086020528160005260406000208181548110611af557600080fd5b90600052602060002001600091509150505481565b600560009054906101000a900473ffffffffffffffffffffffffffffffffffffffff1681565b60096020528160005260406000206020528060005260406000206000915091509054906101000a900473ffffffffffffffffffffffffffffffffffffffff1681565b611b7a611dfe565b600073ffffffffffffffffffffffffffffffffffffffff168173ffffffffffffffffffffffffffffffffffffffff1603611be9576040517f08c379a0000000000000000000000000000000000000000000000000000000008152600401611be090612b7d565b60405180910390fd5b611bf281611e98565b50565b6000600160009054906101000a900473ffffffffffffffffffffffffffffffffffffffff1673ffffffffffffffffffffffffffffffffffffffff166370a08231306040518263ffffffff1660e01b8152600401611c529190612106565b602060405180830381865afa158015611c6f573d6000803e3d6000fd5b505050506040513d601f19601f82011682018060405250810190611c939190612690565b600160009054906101000a900473ffffffffffffffffffffffffffffffffffffffff1673ffffffffffffffffffffffffffffffffffffffff166318160ddd6040518163ffffffff1660e01b8152600401602060405180830381865afa158015611d00573d6000803e3d6000fd5b505050506040513d601f19601f82011682018060405250810190611d249190612690565b611d2e9190612647565b905090565b6000600160009054906101000a900473ffffffffffffffffffffffffffffffffffffffff1673ffffffffffffffffffffffffffffffffffffffff166370a08231836040518263ffffffff1660e01b8152600401611d909190612106565b602060405180830381865afa158015611dad573d6000803e3d6000fd5b505050506040513d601f19601f82011682018060405250810190611dd19190612690565b9050919050565b600160009054906101000a900473ffffffffffffffffffffffffffffffffffffffff1681565b611e06611f5c565b73ffffffffffffffffffffffffffffffffffffffff16611e246118a0565b73ffffffffffffffffffffffffffffffffffffffff1614611e7a576040517f08c379a0000000000000000000000000000000000000000000000000000000008152600401611e7190612be9565b60405180910390fd5b565b600066038d7ea4c6800082611e9191906125d4565b9050919050565b60008060009054906101000a900473ffffffffffffffffffffffffffffffffffffffff169050816000806101000a81548173ffffffffffffffffffffffffffffffffffffffff021916908373ffffffffffffffffffffffffffffffffffffffff1602179055508173ffffffffffffffffffffffffffffffffffffffff168173ffffffffffffffffffffffffffffffffffffffff167f8be0079c531659141344cd1fd0a4f28419497f9722a3daafe3b4186f6b6457e060405160405180910390a35050565b600033905090565b6000819050919050565b611f7781611f64565b82525050565b6000602082019050611f926000830184611f6e565b92915050565b600080fd5b611fa681611f64565b8114611fb157600080fd5b50565b600081359050611fc381611f9d565b92915050565b600060208284031215611fdf57611fde611f98565b5b6000611fed84828501611fb4565b91505092915050565b600073ffffffffffffffffffffffffffffffffffffffff82169050919050565b600061202182611ff6565b9050919050565b61203181612016565b811461203c57600080fd5b50565b60008135905061204e81612028565b92915050565b60006020828403121561206a57612069611f98565b5b60006120788482850161203f565b91505092915050565b60008115159050919050565b61209681612081565b82525050565b60006020820190506120b1600083018461208d565b92915050565b600080604083850312156120ce576120cd611f98565b5b60006120dc85828601611fb4565b92505060206120ed85828601611fb4565b9150509250929050565b61210081612016565b82525050565b600060208201905061211b60008301846120f7565b92915050565b600081519050919050565b600082825260208201905092915050565b6000819050602082019050919050565b61215681611f64565b82525050565b6000612168838361214d565b60208301905092915050565b6000602082019050919050565b600061218c82612121565b612196818561212c565b93506121a18361213d565b8060005b838110156121d25781516121b9888261215c565b97506121c483612174565b9250506001810190506121a5565b5085935050505092915050565b600060208201905081810360008301526121f98184612181565b905092915050565b600060c08201905061221660008301896120f7565b6122236020830188611f6e565b6122306040830187611f6e565b61223d6060830186611f6e565b61224a6080830185611f6e565b61225760a0830184611f6e565b979650505050505050565b6000806040838503121561227957612278611f98565b5b600061228785828601611fb4565b92505060206122988582860161203f565b9150509250929050565b6000819050919050565b60006122c76122c26122bd84611ff6565b6122a2565b611ff6565b9050919050565b60006122d9826122ac565b9050919050565b60006122eb826122ce565b9050919050565b6122fb816122e0565b82525050565b600060208201905061231660008301846122f2565b92915050565b60008060006060848603121561233557612334611f98565b5b600061234386828701611fb4565b93505060206123548682870161203f565b925050604061236586828701611fb4565b9150509250925092565b600061237a826122ce565b9050919050565b61238a8161236f565b82525050565b60006020820190506123a56000830184612381565b92915050565b600082825260208201905092915050565b7f4e6f207469636b65747320707572636861736564000000000000000000000000600082015250565b60006123f26014836123ab565b91506123fd826123bc565b602082019050919050565b60006020820190508181036000830152612421816123e5565b9050919050565b6000819050919050565b61244361243e82611f64565b612428565b82525050565b60008160601b9050919050565b600061246182612449565b9050919050565b600061247382612456565b9050919050565b61248b61248682612016565b612468565b82525050565b600061249d8286612432565b6020820191506124ad828561247a565b6014820191506124bd8284612432565b602082019150819050949350505050565b7f4e487b7100000000000000000000000000000000000000000000000000000000600052601260045260246000fd5b600061250882611f64565b915061251383611f64565b925082612523576125226124ce565b5b828206905092915050565b7f4e487b7100000000000000000000000000000000000000000000000000000000600052601160045260246000fd5b600061256882611f64565b91507fffffffffffffffffffffffffffffffffffffffffffffffffffffffffffffffff820361259a5761259961252e565b5b600182019050919050565b7f4e487b7100000000000000000000000000000000000000000000000000000000600052603260045260246000fd5b60006125df82611f64565b91506125ea83611f64565b92508282026125f881611f64565b9150828204841483151761260f5761260e61252e565b5b5092915050565b600061262182611f64565b915061262c83611f64565b92508261263c5761263b6124ce565b5b828204905092915050565b600061265282611f64565b915061265d83611f64565b92508282039050818111156126755761267461252e565b5b92915050565b60008151905061268a81611f9d565b92915050565b6000602082840312156126a6576126a5611f98565b5b60006126b48482850161267b565b91505092915050565b7f4d75737420627579206174206c65617374206f6e65207469636b657400000000600082015250565b60006126f3601c836123ab565b91506126fe826126bd565b602082019050919050565b60006020820190508181036000830152612722816126e6565b9050919050565b7f596f7520646f206e6f74206861766520656e6f75676820746f6b656e732e0000600082015250565b600061275f601e836123ab565b915061276a82612729565b602082019050919050565b6000602082019050818103600083015261278e81612752565b9050919050565b60006060820190506127aa60008301866120f7565b6127b760208301856120f7565b6127c46040830184611f6e565b949350505050565b6127d581612081565b81146127e057600080fd5b50565b6000815190506127f2816127cc565b92915050565b60006020828403121561280e5761280d611f98565b5b600061281c848285016127e3565b91505092915050565b600060408201905061283a60008301856120f7565b6128476020830184611f6e565b9392505050565b7f496e73756666696369656e74207061796d656e74000000000000000000000000600082015250565b60006128846014836123ab565b915061288f8261284e565b602082019050919050565b600060208201905081810360008301526128b381612877565b9050919050565b7f546865726520617265206e6f7420656e6f75676820746f6b656e7320696e207460008201527f686520636f6e74726163742e0000000000000000000000000000000000000000602082015250565b6000612916602c836123ab565b9150612921826128ba565b604082019050919050565b6000602082019050818103600083015261294581612909565b9050919050565b7f546865206e756d626572206f6620746f6b656e7320746f20626520726574757260008201527f6e6564206d7573742062652067726561746572207468616e20302e0000000000602082015250565b60006129a8603b836123ab565b91506129b38261294c565b604082019050919050565b600060208201905081810360008301526129d78161299b565b9050919050565b7f596f7520646f206e6f7420686176652074686520746f6b656e7320796f75207760008201527f69736820746f2072657475726e2e000000000000000000000000000000000000602082015250565b6000612a3a602e836123ab565b9150612a45826129de565b604082019050919050565b60006020820190508181036000830152612a6981612a2d565b9050919050565b7f546f6b656e207472616e73666572206661696c65642e00000000000000000000600082015250565b6000612aa66016836123ab565b9150612ab182612a70565b602082019050919050565b60006020820190508181036000830152612ad581612a99565b9050919050565b7f4e487b7100000000000000000000000000000000000000000000000000000000600052604160045260246000fd5b7f4f776e61626c653a206e6577206f776e657220697320746865207a65726f206160008201527f6464726573730000000000000000000000000000000000000000000000000000602082015250565b6000612b676026836123ab565b9150612b7282612b0b565b604082019050919050565b60006020820190508181036000830152612b9681612b5a565b9050919050565b7f4f776e61626c653a2063616c6c6572206973206e6f7420746865206f776e6572600082015250565b6000612bd36020836123ab565b9150612bde82612b9d565b602082019050919050565b60006020820190508181036000830152612c0281612bc6565b905091905056fea264697066735822122040c8bfdd6dab843a79f259df28cbfaf0547fb3b7cc7c51d663665ca78e9d81fb64736f6c6343000811003360806040523480156200001157600080fd5b506040516200210f3803806200210f8339818101604052810190620000379190620003ed565b6040518060400160405280600d81526020017f4c6f747465727920546f6b656e000000000000000000000000000000000000008152506040518060400160405280600281526020017f4c540000000000000000000000000000000000000000000000000000000000008152508160039081620000b49190620006a4565b508060049081620000c69190620006a4565b505050620000e9620000dd6200010360201b60201c565b6200010b60201b60201c565b620000fb8183620001d160201b60201c565b5050620008a6565b600033905090565b6000600560009054906101000a900473ffffffffffffffffffffffffffffffffffffffff16905081600560006101000a81548173ffffffffffffffffffffffffffffffffffffffff021916908373ffffffffffffffffffffffffffffffffffffffff1602179055508173ffffffffffffffffffffffffffffffffffffffff168173ffffffffffffffffffffffffffffffffffffffff167f8be0079c531659141344cd1fd0a4f28419497f9722a3daafe3b4186f6b6457e060405160405180910390a35050565b600073ffffffffffffffffffffffffffffffffffffffff168273ffffffffffffffffffffffffffffffffffffffff160362000243576040517f08c379a00000000000000000000000000000000000000000000000000000000081526004016200023a90620007ec565b60405180910390fd5b62000257600083836200033e60201b60201c565b80600260008282546200026b91906200083d565b92505081905550806000808473ffffffffffffffffffffffffffffffffffffffff1673ffffffffffffffffffffffffffffffffffffffff168152602001908152602001600020600082825401925050819055508173ffffffffffffffffffffffffffffffffffffffff16600073ffffffffffffffffffffffffffffffffffffffff167fddf252ad1be2c89b69c2b068fc378daa952ba7f163c4a11628f55a4df523b3ef836040516200031e919062000889565b60405180910390a36200033a600083836200034360201b60201c565b5050565b505050565b505050565b600080fd5b6000819050919050565b62000362816200034d565b81146200036e57600080fd5b50565b600081519050620003828162000357565b92915050565b600073ffffffffffffffffffffffffffffffffffffffff82169050919050565b6000620003b58262000388565b9050919050565b620003c781620003a8565b8114620003d357600080fd5b50565b600081519050620003e781620003bc565b92915050565b6000806040838503121562000407576200040662000348565b5b6000620004178582860162000371565b92505060206200042a85828601620003d6565b9150509250929050565b600081519050919050565b7f4e487b7100000000000000000000000000000000000000000000000000000000600052604160045260246000fd5b7f4e487b7100000000000000000000000000000000000000000000000000000000600052602260045260246000fd5b60006002820490506001821680620004b657607f821691505b602082108103620004cc57620004cb6200046e565b5b50919050565b60008190508160005260206000209050919050565b60006020601f8301049050919050565b600082821b905092915050565b600060088302620005367fffffffffffffffffffffffffffffffffffffffffffffffffffffffffffffffff82620004f7565b620005428683620004f7565b95508019841693508086168417925050509392505050565b6000819050919050565b6000620005856200057f62000579846200034d565b6200055a565b6200034d565b9050919050565b6000819050919050565b620005a18362000564565b620005b9620005b0826200058c565b84845462000504565b825550505050565b600090565b620005d0620005c1565b620005dd81848462000596565b505050565b5b818110156200060557620005f9600082620005c6565b600181019050620005e3565b5050565b601f82111562000654576200061e81620004d2565b6200062984620004e7565b8101602085101562000639578190505b620006516200064885620004e7565b830182620005e2565b50505b505050565b600082821c905092915050565b6000620006796000198460080262000659565b1980831691505092915050565b600062000694838362000666565b9150826002028217905092915050565b620006af8262000434565b67ffffffffffffffff811115620006cb57620006ca6200043f565b5b620006d782546200049d565b620006e482828562000609565b600060209050601f8311600181146200071c576000841562000707578287015190505b62000713858262000686565b86555062000783565b601f1984166200072c86620004d2565b60005b8281101562000756578489015182556001820191506020850194506020810190506200072f565b8683101562000776578489015162000772601f89168262000666565b8355505b6001600288020188555050505b505050505050565b600082825260208201905092915050565b7f45524332303a206d696e7420746f20746865207a65726f206164647265737300600082015250565b6000620007d4601f836200078b565b9150620007e1826200079c565b602082019050919050565b600060208201905081810360008301526200080781620007c5565b9050919050565b7f4e487b7100000000000000000000000000000000000000000000000000000000600052601160045260246000fd5b60006200084a826200034d565b915062000857836200034d565b92508282019050808211156200087257620008716200080e565b5b92915050565b62000883816200034d565b82525050565b6000602082019050620008a0600083018462000878565b92915050565b61185980620008b66000396000f3fe608060405234801561001057600080fd5b50600436106101005760003560e01c80638da5cb5b11610097578063a9059cbb11610066578063a9059cbb146102b1578063dd62ed3e146102e1578063f2fde38b14610311578063f9b4527a1461032d57610100565b80638da5cb5b1461022957806395d89b4114610247578063a0712d6814610265578063a457c2d71461028157610100565b8063313ce567116100d3578063313ce567146101a157806339509351146101bf57806370a08231146101ef578063715018a61461021f57610100565b806306fdde0314610105578063095ea7b31461012357806318160ddd1461015357806323b872dd14610171575b600080fd5b61010d61035d565b60405161011a9190610f75565b60405180910390f35b61013d60048036038101906101389190611030565b6103ef565b60405161014a919061108b565b60405180910390f35b61015b610412565b60405161016891906110b5565b60405180910390f35b61018b600480360381019061018691906110d0565b61041c565b604051610198919061108b565b60405180910390f35b6101a961044b565b6040516101b6919061113f565b60405180910390f35b6101d960048036038101906101d49190611030565b610454565b6040516101e6919061108b565b60405180910390f35b6102096004803603810190610204919061115a565b61048b565b60405161021691906110b5565b60405180910390f35b6102276104d3565b005b6102316104e7565b60405161023e9190611196565b60405180910390f35b61024f610511565b60405161025c9190610f75565b60405180910390f35b61027f600480360381019061027a91906111b1565b6105a3565b005b61029b60048036038101906102969190611030565b6105b8565b6040516102a8919061108b565b60405180910390f35b6102cb60048036038101906102c69190611030565b61062f565b6040516102d8919061108b565b60405180910390f35b6102fb60048036038101906102f691906111de565b610652565b60405161030891906110b5565b60405180910390f35b61032b6004803603810190610326919061115a565b6106d9565b005b6103476004803603810190610342919061115a565b61075c565b60405161035491906110b5565b60405180910390f35b60606003805461036c9061124d565b80601f01602080910402602001604051908101604052809291908181526020018280546103989061124d565b80156103e55780601f106103ba576101008083540402835291602001916103e5565b820191906000526020600020905b8154815290600101906020018083116103c857829003601f168201915b5050505050905090565b6000806103fa61076e565b9050610407818585610776565b600191505092915050565b6000600254905090565b60008061042761076e565b905061043485828561093f565b61043f8585856109cb565b60019150509392505050565b60006012905090565b60008061045f61076e565b90506104808185856104718589610652565b61047b91906112ad565b610776565b600191505092915050565b60008060008373ffffffffffffffffffffffffffffffffffffffff1673ffffffffffffffffffffffffffffffffffffffff168152602001908152602001600020549050919050565b6104db610c41565b6104e56000610cbf565b565b6000600560009054906101000a900473ffffffffffffffffffffffffffffffffffffffff16905090565b6060600480546105209061124d565b80601f016020809104026020016040519081016040528092919081815260200182805461054c9061124d565b80156105995780601f1061056e57610100808354040283529160200191610599565b820191906000526020600020905b81548152906001019060200180831161057c57829003601f168201915b5050505050905090565b6105ab610c41565b6105b53082610d85565b50565b6000806105c361076e565b905060006105d18286610652565b905083811015610616576040517f08c379a000000000000000000000000000000000000000000000000000000000815260040161060d90611353565b60405180910390fd5b6106238286868403610776565b60019250505092915050565b60008061063a61076e565b90506106478185856109cb565b600191505092915050565b6000600160008473ffffffffffffffffffffffffffffffffffffffff1673ffffffffffffffffffffffffffffffffffffffff16815260200190815260200160002060008373ffffffffffffffffffffffffffffffffffffffff1673ffffffffffffffffffffffffffffffffffffffff16815260200190815260200160002054905092915050565b6106e1610c41565b600073ffffffffffffffffffffffffffffffffffffffff168173ffffffffffffffffffffffffffffffffffffffff1603610750576040517f08c379a0000000000000000000000000000000000000000000000000000000008152600401610747906113e5565b60405180910390fd5b61075981610cbf565b50565b60006107678261048b565b9050919050565b600033905090565b600073ffffffffffffffffffffffffffffffffffffffff168373ffffffffffffffffffffffffffffffffffffffff16036107e5576040517f08c379a00000000000000000000000000000000000000000000000000000000081526004016107dc90611477565b60405180910390fd5b600073ffffffffffffffffffffffffffffffffffffffff168273ffffffffffffffffffffffffffffffffffffffff1603610854576040517f08c379a000000000000000000000000000000000000000000000000000000000815260040161084b90611509565b60405180910390fd5b80600160008573ffffffffffffffffffffffffffffffffffffffff1673ffffffffffffffffffffffffffffffffffffffff16815260200190815260200160002060008473ffffffffffffffffffffffffffffffffffffffff1673ffffffffffffffffffffffffffffffffffffffff168152602001908152602001600020819055508173ffffffffffffffffffffffffffffffffffffffff168373ffffffffffffffffffffffffffffffffffffffff167f8c5be1e5ebec7d5bd14f71427d1e84f3dd0314c0f7b2291e5b200ac8c7c3b9258360405161093291906110b5565b60405180910390a3505050565b600061094b8484610652565b90507fffffffffffffffffffffffffffffffffffffffffffffffffffffffffffffffff81146109c557818110156109b7576040517f08c379a00000000000000000000000000000000000000000000000000000000081526004016109ae90611575565b60405180910390fd5b6109c48484848403610776565b5b50505050565b600073ffffffffffffffffffffffffffffffffffffffff168373ffffffffffffffffffffffffffffffffffffffff1603610a3a576040517f08c379a0000000000000000000000000000000000000000000000000000000008152600401610a3190611607565b60405180910390fd5b600073ffffffffffffffffffffffffffffffffffffffff168273ffffffffffffffffffffffffffffffffffffffff1603610aa9576040517f08c379a0000000000000000000000000000000000000000000000000000000008152600401610aa090611699565b60405180910390fd5b610ab4838383610edb565b60008060008573ffffffffffffffffffffffffffffffffffffffff1673ffffffffffffffffffffffffffffffffffffffff16815260200190815260200160002054905081811015610b3a576040517f08c379a0000000000000000000000000000000000000000000000000000000008152600401610b319061172b565b60405180910390fd5b8181036000808673ffffffffffffffffffffffffffffffffffffffff1673ffffffffffffffffffffffffffffffffffffffff16815260200190815260200160002081905550816000808573ffffffffffffffffffffffffffffffffffffffff1673ffffffffffffffffffffffffffffffffffffffff168152602001908152602001600020600082825401925050819055508273ffffffffffffffffffffffffffffffffffffffff168473ffffffffffffffffffffffffffffffffffffffff167fddf252ad1be2c89b69c2b068fc378daa952ba7f163c4a11628f55a4df523b3ef84604051610c2891906110b5565b60405180910390a3610c3b848484610ee0565b50505050565b610c4961076e565b73ffffffffffffffffffffffffffffffffffffffff16610c676104e7565b73ffffffffffffffffffffffffffffffffffffffff1614610cbd576040517f08c379a0000000000000000000000000000000000000000000000000000000008152600401610cb490611797565b60405180910390fd5b565b6000600560009054906101000a900473ffffffffffffffffffffffffffffffffffffffff16905081600560006101000a81548173ffffffffffffffffffffffffffffffffffffffff021916908373ffffffffffffffffffffffffffffffffffffffff1602179055508173ffffffffffffffffffffffffffffffffffffffff168173ffffffffffffffffffffffffffffffffffffffff167f8be0079c531659141344cd1fd0a4f28419497f9722a3daafe3b4186f6b6457e060405160405180910390a35050565b600073ffffffffffffffffffffffffffffffffffffffff168273ffffffffffffffffffffffffffffffffffffffff1603610df4576040517f08c379a0000000000000000000000000000000000000000000000000000000008152600401610deb90611803565b60405180910390fd5b610e0060008383610edb565b8060026000828254610e1291906112ad565b92505081905550806000808473ffffffffffffffffffffffffffffffffffffffff1673ffffffffffffffffffffffffffffffffffffffff168152602001908152602001600020600082825401925050819055508173ffffffffffffffffffffffffffffffffffffffff16600073ffffffffffffffffffffffffffffffffffffffff167fddf252ad1be2c89b69c2b068fc378daa952ba7f163c4a11628f55a4df523b3ef83604051610ec391906110b5565b60405180910390a3610ed760008383610ee0565b5050565b505050565b505050565b600081519050919050565b600082825260208201905092915050565b60005b83811015610f1f578082015181840152602081019050610f04565b60008484015250505050565b6000601f19601f8301169050919050565b6000610f4782610ee5565b610f518185610ef0565b9350610f61818560208601610f01565b610f6a81610f2b565b840191505092915050565b60006020820190508181036000830152610f8f8184610f3c565b905092915050565b600080fd5b600073ffffffffffffffffffffffffffffffffffffffff82169050919050565b6000610fc782610f9c565b9050919050565b610fd781610fbc565b8114610fe257600080fd5b50565b600081359050610ff481610fce565b92915050565b6000819050919050565b61100d81610ffa565b811461101857600080fd5b50565b60008135905061102a81611004565b92915050565b6000806040838503121561104757611046610f97565b5b600061105585828601610fe5565b92505060206110668582860161101b565b9150509250929050565b60008115159050919050565b61108581611070565b82525050565b60006020820190506110a0600083018461107c565b92915050565b6110af81610ffa565b82525050565b60006020820190506110ca60008301846110a6565b92915050565b6000806000606084860312156110e9576110e8610f97565b5b60006110f786828701610fe5565b935050602061110886828701610fe5565b92505060406111198682870161101b565b9150509250925092565b600060ff82169050919050565b61113981611123565b82525050565b60006020820190506111546000830184611130565b92915050565b6000602082840312156111705761116f610f97565b5b600061117e84828501610fe5565b91505092915050565b61119081610fbc565b82525050565b60006020820190506111ab6000830184611187565b92915050565b6000602082840312156111c7576111c6610f97565b5b60006111d58482850161101b565b91505092915050565b600080604083850312156111f5576111f4610f97565b5b600061120385828601610fe5565b925050602061121485828601610fe5565b9150509250929050565b7f4e487b7100000000000000000000000000000000000000000000000000000000600052602260045260246000fd5b6000600282049050600182168061126557607f821691505b6020821081036112785761127761121e565b5b50919050565b7f4e487b7100000000000000000000000000000000000000000000000000000000600052601160045260246000fd5b60006112b882610ffa565b91506112c383610ffa565b92508282019050808211156112db576112da61127e565b5b92915050565b7f45524332303a2064656372656173656420616c6c6f77616e63652062656c6f7760008201527f207a65726f000000000000000000000000000000000000000000000000000000602082015250565b600061133d602583610ef0565b9150611348826112e1565b604082019050919050565b6000602082019050818103600083015261136c81611330565b9050919050565b7f4f776e61626c653a206e6577206f776e657220697320746865207a65726f206160008201527f6464726573730000000000000000000000000000000000000000000000000000602082015250565b60006113cf602683610ef0565b91506113da82611373565b604082019050919050565b600060208201905081810360008301526113fe816113c2565b9050919050565b7f45524332303a20617070726f76652066726f6d20746865207a65726f2061646460008201527f7265737300000000000000000000000000000000000000000000000000000000602082015250565b6000611461602483610ef0565b915061146c82611405565b604082019050919050565b6000602082019050818103600083015261149081611454565b9050919050565b7f45524332303a20617070726f766520746f20746865207a65726f20616464726560008201527f7373000000000000000000000000000000000000000000000000000000000000602082015250565b60006114f3602283610ef0565b91506114fe82611497565b604082019050919050565b60006020820190508181036000830152611522816114e6565b9050919050565b7f45524332303a20696e73756666696369656e7420616c6c6f77616e6365000000600082015250565b600061155f601d83610ef0565b915061156a82611529565b602082019050919050565b6000602082019050818103600083015261158e81611552565b9050919050565b7f45524332303a207472616e736665722066726f6d20746865207a65726f20616460008201527f6472657373000000000000000000000000000000000000000000000000000000602082015250565b60006115f1602583610ef0565b91506115fc82611595565b604082019050919050565b60006020820190508181036000830152611620816115e4565b9050919050565b7f45524332303a207472616e7366657220746f20746865207a65726f206164647260008201527f6573730000000000000000000000000000000000000000000000000000000000602082015250565b6000611683602383610ef0565b915061168e82611627565b604082019050919050565b600060208201905081810360008301526116b281611676565b9050919050565b7f45524332303a207472616e7366657220616d6f756e742065786365656473206260008201527f616c616e63650000000000000000000000000000000000000000000000000000602082015250565b6000611715602683610ef0565b9150611720826116b9565b604082019050919050565b6000602082019050818103600083015261174481611708565b9050919050565b7f4f776e61626c653a2063616c6c6572206973206e6f7420746865206f776e6572600082015250565b6000611781602083610ef0565b915061178c8261174b565b602082019050919050565b600060208201905081810360008301526117b081611774565b9050919050565b7f45524332303a206d696e7420746f20746865207a65726f206164647265737300600082015250565b60006117ed601f83610ef0565b91506117f8826117b7565b602082019050919050565b6000602082019050818103600083015261181c816117e0565b905091905056fea26469706673582212200ffd82bd3eea21280866eef45bed2bdc3f215038db8d730216b704cb146635e464736f6c6343000811003360806040523480156200001157600080fd5b5060405162002b6238038062002b6283398181016040528101906200003791906200017b565b6040518060400160405280600e81526020017f4c6f7474657279205469636b65740000000000000000000000000000000000008152506040518060400160405280600381526020017f4c544b00000000000000000000000000000000000000000000000000000000008152508160009081620000b4919062000427565b508060019081620000c6919062000427565b50505080600660006101000a81548173ffffffffffffffffffffffffffffffffffffffff021916908373ffffffffffffffffffffffffffffffffffffffff160217905550506200050e565b600080fd5b600073ffffffffffffffffffffffffffffffffffffffff82169050919050565b6000620001438262000116565b9050919050565b620001558162000136565b81146200016157600080fd5b50565b60008151905062000175816200014a565b92915050565b60006020828403121562000194576200019362000111565b5b6000620001a48482850162000164565b91505092915050565b600081519050919050565b7f4e487b7100000000000000000000000000000000000000000000000000000000600052604160045260246000fd5b7f4e487b7100000000000000000000000000000000000000000000000000000000600052602260045260246000fd5b600060028204905060018216806200022f57607f821691505b602082108103620002455762000244620001e7565b5b50919050565b60008190508160005260206000209050919050565b60006020601f8301049050919050565b600082821b905092915050565b600060088302620002af7fffffffffffffffffffffffffffffffffffffffffffffffffffffffffffffffff8262000270565b620002bb868362000270565b95508019841693508086168417925050509392505050565b6000819050919050565b6000819050919050565b60006200030862000302620002fc84620002d3565b620002dd565b620002d3565b9050919050565b6000819050919050565b6200032483620002e7565b6200033c62000333826200030f565b8484546200027d565b825550505050565b600090565b6200035362000344565b6200036081848462000319565b505050565b5b8181101562000388576200037c60008262000349565b60018101905062000366565b5050565b601f821115620003d757620003a1816200024b565b620003ac8462000260565b81016020851015620003bc578190505b620003d4620003cb8562000260565b83018262000365565b50505b505050565b600082821c905092915050565b6000620003fc60001984600802620003dc565b1980831691505092915050565b6000620004178383620003e9565b9150826002028217905092915050565b6200043282620001ad565b67ffffffffffffffff8111156200044e576200044d620001b8565b5b6200045a825462000216565b620004678282856200038c565b600060209050601f8311600181146200049f57600084156200048a578287015190505b62000496858262000409565b86555062000506565b601f198416620004af866200024b565b60005b82811015620004d957848901518255600182019150602085019450602081019050620004b2565b86831015620004f95784890151620004f5601f891682620003e9565b8355505b6001600288020188555050505b505050505050565b612644806200051e6000396000f3fe608060405234801561001057600080fd5b50600436106100f55760003560e01c806370a0823111610097578063b29c662a11610066578063b29c662a14610282578063b88d4fde146102a0578063c87b56dd146102bc578063e985e9c5146102ec576100f5565b806370a08231146101fc57806395d89b411461022c578063a14481941461024a578063a22cb46514610266576100f5565b8063095ea7b3116100d3578063095ea7b31461017857806323b872dd1461019457806342842e0e146101b05780636352211e146101cc576100f5565b806301ffc9a7146100fa57806306fdde031461012a578063081812fc14610148575b600080fd5b610114600480360381019061010f91906118ae565b61031c565b60405161012191906118f6565b60405180910390f35b6101326103fe565b60405161013f91906119a1565b60405180910390f35b610162600480360381019061015d91906119f9565b610490565b60405161016f9190611a67565b60405180910390f35b610192600480360381019061018d9190611aae565b6104d6565b005b6101ae60048036038101906101a99190611aee565b6105ed565b005b6101ca60048036038101906101c59190611aee565b61064d565b005b6101e660048036038101906101e191906119f9565b61066d565b6040516101f39190611a67565b60405180910390f35b61021660048036038101906102119190611b41565b6106f3565b6040516102239190611b7d565b60405180910390f35b6102346107aa565b60405161024191906119a1565b60405180910390f35b610264600480360381019061025f9190611aae565b61083c565b005b610280600480360381019061027b9190611bc4565b6108da565b005b61028a6108f0565b6040516102979190611a67565b60405180910390f35b6102ba60048036038101906102b59190611d39565b610916565b005b6102d660048036038101906102d191906119f9565b610978565b6040516102e391906119a1565b60405180910390f35b61030660048036038101906103019190611dbc565b6109e0565b60405161031391906118f6565b60405180910390f35b60007f80ac58cd000000000000000000000000000000000000000000000000000000007bffffffffffffffffffffffffffffffffffffffffffffffffffffffff1916827bffffffffffffffffffffffffffffffffffffffffffffffffffffffff191614806103e757507f5b5e139f000000000000000000000000000000000000000000000000000000007bffffffffffffffffffffffffffffffffffffffffffffffffffffffff1916827bffffffffffffffffffffffffffffffffffffffffffffffffffffffff1916145b806103f757506103f682610a74565b5b9050919050565b60606000805461040d90611e2b565b80601f016020809104026020016040519081016040528092919081815260200182805461043990611e2b565b80156104865780601f1061045b57610100808354040283529160200191610486565b820191906000526020600020905b81548152906001019060200180831161046957829003601f168201915b5050505050905090565b600061049b82610ade565b6004600083815260200190815260200160002060009054906101000a900473ffffffffffffffffffffffffffffffffffffffff169050919050565b60006104e18261066d565b90508073ffffffffffffffffffffffffffffffffffffffff168373ffffffffffffffffffffffffffffffffffffffff1603610551576040517f08c379a000000000000000000000000000000000000000000000000000000000815260040161054890611ece565b60405180910390fd5b8073ffffffffffffffffffffffffffffffffffffffff16610570610b29565b73ffffffffffffffffffffffffffffffffffffffff16148061059f575061059e81610599610b29565b6109e0565b5b6105de576040517f08c379a00000000000000000000000000000000000000000000000000000000081526004016105d590611f60565b60405180910390fd5b6105e88383610b31565b505050565b6105fe6105f8610b29565b82610bea565b61063d576040517f08c379a000000000000000000000000000000000000000000000000000000000815260040161063490611ff2565b60405180910390fd5b610648838383610c7f565b505050565b61066883838360405180602001604052806000815250610916565b505050565b60008061067983610f78565b9050600073ffffffffffffffffffffffffffffffffffffffff168173ffffffffffffffffffffffffffffffffffffffff16036106ea576040517f08c379a00000000000000000000000000000000000000000000000000000000081526004016106e19061205e565b60405180910390fd5b80915050919050565b60008073ffffffffffffffffffffffffffffffffffffffff168273ffffffffffffffffffffffffffffffffffffffff1603610763576040517f08c379a000000000000000000000000000000000000000000000000000000000815260040161075a906120f0565b60405180910390fd5b600360008373ffffffffffffffffffffffffffffffffffffffff1673ffffffffffffffffffffffffffffffffffffffff168152602001908152602001600020549050919050565b6060600180546107b990611e2b565b80601f01602080910402602001604051908101604052809291908181526020018280546107e590611e2b565b80156108325780601f1061080757610100808354040283529160200191610832565b820191906000526020600020905b81548152906001019060200180831161081557829003601f168201915b5050505050905090565b600660009054906101000a900473ffffffffffffffffffffffffffffffffffffffff1673ffffffffffffffffffffffffffffffffffffffff163373ffffffffffffffffffffffffffffffffffffffff16146108cc576040517f08c379a00000000000000000000000000000000000000000000000000000000081526004016108c390612182565b60405180910390fd5b6108d68282610fb5565b5050565b6108ec6108e5610b29565b8383610fd3565b5050565b600660009054906101000a900473ffffffffffffffffffffffffffffffffffffffff1681565b610927610921610b29565b83610bea565b610966576040517f08c379a000000000000000000000000000000000000000000000000000000000815260040161095d90611ff2565b60405180910390fd5b6109728484848461113f565b50505050565b606061098382610ade565b600061098d61119b565b905060008151116109ad57604051806020016040528060008152506109d8565b806109b7846111b2565b6040516020016109c89291906121de565b6040516020818303038152906040525b915050919050565b6000600560008473ffffffffffffffffffffffffffffffffffffffff1673ffffffffffffffffffffffffffffffffffffffff16815260200190815260200160002060008373ffffffffffffffffffffffffffffffffffffffff1673ffffffffffffffffffffffffffffffffffffffff16815260200190815260200160002060009054906101000a900460ff16905092915050565b60007f01ffc9a7000000000000000000000000000000000000000000000000000000007bffffffffffffffffffffffffffffffffffffffffffffffffffffffff1916827bffffffffffffffffffffffffffffffffffffffffffffffffffffffff1916149050919050565b610ae781611280565b610b26576040517f08c379a0000000000000000000000000000000000000000000000000000000008152600401610b1d9061205e565b60405180910390fd5b50565b600033905090565b816004600083815260200190815260200160002060006101000a81548173ffffffffffffffffffffffffffffffffffffffff021916908373ffffffffffffffffffffffffffffffffffffffff160217905550808273ffffffffffffffffffffffffffffffffffffffff16610ba48361066d565b73ffffffffffffffffffffffffffffffffffffffff167f8c5be1e5ebec7d5bd14f71427d1e84f3dd0314c0f7b2291e5b200ac8c7c3b92560405160405180910390a45050565b600080610bf68361066d565b90508073ffffffffffffffffffffffffffffffffffffffff168473ffffffffffffffffffffffffffffffffffffffff161480610c385750610c3781856109e0565b5b80610c7657508373ffffffffffffffffffffffffffffffffffffffff16610c5e84610490565b73ffffffffffffffffffffffffffffffffffffffff16145b91505092915050565b8273ffffffffffffffffffffffffffffffffffffffff16610c9f8261066d565b73ffffffffffffffffffffffffffffffffffffffff1614610cf5576040517f08c379a0000000000000000000000000000000000000000000000000000000008152600401610cec90612274565b60405180910390fd5b600073ffffffffffffffffffffffffffffffffffffffff168273ffffffffffffffffffffffffffffffffffffffff1603610d64576040517f08c379a0000000000000000000000000000000000000000000000000000000008152600401610d5b90612306565b60405180910390fd5b610d7183838360016112c1565b8273ffffffffffffffffffffffffffffffffffffffff16610d918261066d565b73ffffffffffffffffffffffffffffffffffffffff1614610de7576040517f08c379a0000000000000000000000000000000000000000000000000000000008152600401610dde90612274565b60405180910390fd5b6004600082815260200190815260200160002060006101000a81549073ffffffffffffffffffffffffffffffffffffffff02191690556001600360008573ffffffffffffffffffffffffffffffffffffffff1673ffffffffffffffffffffffffffffffffffffffff168152602001908152602001600020600082825403925050819055506001600360008473ffffffffffffffffffffffffffffffffffffffff1673ffffffffffffffffffffffffffffffffffffffff16815260200190815260200160002060008282540192505081905550816002600083815260200190815260200160002060006101000a81548173ffffffffffffffffffffffffffffffffffffffff021916908373ffffffffffffffffffffffffffffffffffffffff160217905550808273ffffffffffffffffffffffffffffffffffffffff168473ffffffffffffffffffffffffffffffffffffffff167fddf252ad1be2c89b69c2b068fc378daa952ba7f163c4a11628f55a4df523b3ef60405160405180910390a4610f7383838360016112c7565b505050565b60006002600083815260200190815260200160002060009054906101000a900473ffffffffffffffffffffffffffffffffffffffff169050919050565b610fcf8282604051806020016040528060008152506112cd565b5050565b8173ffffffffffffffffffffffffffffffffffffffff168373ffffffffffffffffffffffffffffffffffffffff1603611041576040517f08c379a000000000000000000000000000000000000000000000000000000000815260040161103890612372565b60405180910390fd5b80600560008573ffffffffffffffffffffffffffffffffffffffff1673ffffffffffffffffffffffffffffffffffffffff16815260200190815260200160002060008473ffffffffffffffffffffffffffffffffffffffff1673ffffffffffffffffffffffffffffffffffffffff16815260200190815260200160002060006101000a81548160ff0219169083151502179055508173ffffffffffffffffffffffffffffffffffffffff168373ffffffffffffffffffffffffffffffffffffffff167f17307eab39ab6107e8899845ad3d59bd9653f200f220920489ca2b5937696c318360405161113291906118f6565b60405180910390a3505050565b61114a848484610c7f565b61115684848484611328565b611195576040517f08c379a000000000000000000000000000000000000000000000000000000000815260040161118c90612404565b60405180910390fd5b50505050565b606060405180602001604052806000815250905090565b6060600060016111c1846114af565b01905060008167ffffffffffffffff8111156111e0576111df611c0e565b5b6040519080825280601f01601f1916602001820160405280156112125781602001600182028036833780820191505090505b509050600082602001820190505b600115611275578080600190039150507f3031323334353637383961626364656600000000000000000000000000000000600a86061a8153600a858161126957611268612424565b5b04945060008503611220575b819350505050919050565b60008073ffffffffffffffffffffffffffffffffffffffff166112a283610f78565b73ffffffffffffffffffffffffffffffffffffffff1614159050919050565b50505050565b50505050565b6112d78383611602565b6112e46000848484611328565b611323576040517f08c379a000000000000000000000000000000000000000000000000000000000815260040161131a90612404565b60405180910390fd5b505050565b60006113498473ffffffffffffffffffffffffffffffffffffffff1661181f565b156114a2578373ffffffffffffffffffffffffffffffffffffffff1663150b7a02611372610b29565b8786866040518563ffffffff1660e01b815260040161139494939291906124a8565b6020604051808303816000875af19250505080156113d057506040513d601f19601f820116820180604052508101906113cd9190612509565b60015b611452573d8060008114611400576040519150601f19603f3d011682016040523d82523d6000602084013e611405565b606091505b50600081510361144a576040517f08c379a000000000000000000000000000000000000000000000000000000000815260040161144190612404565b60405180910390fd5b805181602001fd5b63150b7a0260e01b7bffffffffffffffffffffffffffffffffffffffffffffffffffffffff1916817bffffffffffffffffffffffffffffffffffffffffffffffffffffffff1916149150506114a7565b600190505b949350505050565b600080600090507a184f03e93ff9f4daa797ed6e38ed64bf6a1f010000000000000000831061150d577a184f03e93ff9f4daa797ed6e38ed64bf6a1f010000000000000000838161150357611502612424565b5b0492506040810190505b6d04ee2d6d415b85acef8100000000831061154a576d04ee2d6d415b85acef810000000083816115405761153f612424565b5b0492506020810190505b662386f26fc10000831061157957662386f26fc10000838161156f5761156e612424565b5b0492506010810190505b6305f5e10083106115a2576305f5e100838161159857611597612424565b5b0492506008810190505b61271083106115c75761271083816115bd576115bc612424565b5b0492506004810190505b606483106115ea57606483816115e0576115df612424565b5b0492506002810190505b600a83106115f9576001810190505b80915050919050565b600073ffffffffffffffffffffffffffffffffffffffff168273ffffffffffffffffffffffffffffffffffffffff1603611671576040517f08c379a000000000000000000000000000000000000000000000000000000000815260040161166890612582565b60405180910390fd5b61167a81611280565b156116ba576040517f08c379a00000000000000000000000000000000000000000000000000000000081526004016116b1906125ee565b60405180910390fd5b6116c86000838360016112c1565b6116d181611280565b15611711576040517f08c379a0000000000000000000000000000000000000000000000000000000008152600401611708906125ee565b60405180910390fd5b6001600360008473ffffffffffffffffffffffffffffffffffffffff1673ffffffffffffffffffffffffffffffffffffffff16815260200190815260200160002060008282540192505081905550816002600083815260200190815260200160002060006101000a81548173ffffffffffffffffffffffffffffffffffffffff021916908373ffffffffffffffffffffffffffffffffffffffff160217905550808273ffffffffffffffffffffffffffffffffffffffff16600073ffffffffffffffffffffffffffffffffffffffff167fddf252ad1be2c89b69c2b068fc378daa952ba7f163c4a11628f55a4df523b3ef60405160405180910390a461181b6000838360016112c7565b5050565b6000808273ffffffffffffffffffffffffffffffffffffffff163b119050919050565b6000604051905090565b600080fd5b600080fd5b60007fffffffff0000000000000000000000000000000000000000000000000000000082169050919050565b61188b81611856565b811461189657600080fd5b50565b6000813590506118a881611882565b92915050565b6000602082840312156118c4576118c361184c565b5b60006118d284828501611899565b91505092915050565b60008115159050919050565b6118f0816118db565b82525050565b600060208201905061190b60008301846118e7565b92915050565b600081519050919050565b600082825260208201905092915050565b60005b8381101561194b578082015181840152602081019050611930565b60008484015250505050565b6000601f19601f8301169050919050565b600061197382611911565b61197d818561191c565b935061198d81856020860161192d565b61199681611957565b840191505092915050565b600060208201905081810360008301526119bb8184611968565b905092915050565b6000819050919050565b6119d6816119c3565b81146119e157600080fd5b50565b6000813590506119f3816119cd565b92915050565b600060208284031215611a0f57611a0e61184c565b5b6000611a1d848285016119e4565b91505092915050565b600073ffffffffffffffffffffffffffffffffffffffff82169050919050565b6000611a5182611a26565b9050919050565b611a6181611a46565b82525050565b6000602082019050611a7c6000830184611a58565b92915050565b611a8b81611a46565b8114611a9657600080fd5b50565b600081359050611aa881611a82565b92915050565b60008060408385031215611ac557611ac461184c565b5b6000611ad385828601611a99565b9250506020611ae4858286016119e4565b9150509250929050565b600080600060608486031215611b0757611b0661184c565b5b6000611b1586828701611a99565b9350506020611b2686828701611a99565b9250506040611b37868287016119e4565b9150509250925092565b600060208284031215611b5757611b5661184c565b5b6000611b6584828501611a99565b91505092915050565b611b77816119c3565b82525050565b6000602082019050611b926000830184611b6e565b92915050565b611ba1816118db565b8114611bac57600080fd5b50565b600081359050611bbe81611b98565b92915050565b60008060408385031215611bdb57611bda61184c565b5b6000611be985828601611a99565b9250506020611bfa85828601611baf565b9150509250929050565b600080fd5b600080fd5b7f4e487b7100000000000000000000000000000000000000000000000000000000600052604160045260246000fd5b611c4682611957565b810181811067ffffffffffffffff82111715611c6557611c64611c0e565b5b80604052505050565b6000611c78611842565b9050611c848282611c3d565b919050565b600067ffffffffffffffff821115611ca457611ca3611c0e565b5b611cad82611957565b9050602081019050919050565b82818337600083830152505050565b6000611cdc611cd784611c89565b611c6e565b905082815260208101848484011115611cf857611cf7611c09565b5b611d03848285611cba565b509392505050565b600082601f830112611d2057611d1f611c04565b5b8135611d30848260208601611cc9565b91505092915050565b60008060008060808587031215611d5357611d5261184c565b5b6000611d6187828801611a99565b9450506020611d7287828801611a99565b9350506040611d83878288016119e4565b925050606085013567ffffffffffffffff811115611da457611da3611851565b5b611db087828801611d0b565b91505092959194509250565b60008060408385031215611dd357611dd261184c565b5b6000611de185828601611a99565b9250506020611df285828601611a99565b9150509250929050565b7f4e487b7100000000000000000000000000000000000000000000000000000000600052602260045260246000fd5b60006002820490506001821680611e4357607f821691505b602082108103611e5657611e55611dfc565b5b50919050565b7f4552433732313a20617070726f76616c20746f2063757272656e74206f776e6560008201527f7200000000000000000000000000000000000000000000000000000000000000602082015250565b6000611eb860218361191c565b9150611ec382611e5c565b604082019050919050565b60006020820190508181036000830152611ee781611eab565b9050919050565b7f4552433732313a20617070726f76652063616c6c6572206973206e6f7420746f60008201527f6b656e206f776e6572206f7220617070726f76656420666f7220616c6c000000602082015250565b6000611f4a603d8361191c565b9150611f5582611eee565b604082019050919050565b60006020820190508181036000830152611f7981611f3d565b9050919050565b7f4552433732313a2063616c6c6572206973206e6f7420746f6b656e206f776e6560008201527f72206f7220617070726f76656400000000000000000000000000000000000000602082015250565b6000611fdc602d8361191c565b9150611fe782611f80565b604082019050919050565b6000602082019050818103600083015261200b81611fcf565b9050919050565b7f4552433732313a20696e76616c696420746f6b656e2049440000000000000000600082015250565b600061204860188361191c565b915061205382612012565b602082019050919050565b600060208201905081810360008301526120778161203b565b9050919050565b7f4552433732313a2061646472657373207a65726f206973206e6f74206120766160008201527f6c6964206f776e65720000000000000000000000000000000000000000000000602082015250565b60006120da60298361191c565b91506120e58261207e565b604082019050919050565b60006020820190508181036000830152612109816120cd565b9050919050565b7f4f6e6c79206c6f747465727920636f6e74726163742063616e206d696e74207460008201527f69636b6574730000000000000000000000000000000000000000000000000000602082015250565b600061216c60268361191c565b915061217782612110565b604082019050919050565b6000602082019050818103600083015261219b8161215f565b9050919050565b600081905092915050565b60006121b882611911565b6121c281856121a2565b93506121d281856020860161192d565b80840191505092915050565b60006121ea82856121ad565b91506121f682846121ad565b91508190509392505050565b7f4552433732313a207472616e736665722066726f6d20696e636f72726563742060008201527f6f776e6572000000000000000000000000000000000000000000000000000000602082015250565b600061225e60258361191c565b915061226982612202565b604082019050919050565b6000602082019050818103600083015261228d81612251565b9050919050565b7f4552433732313a207472616e7366657220746f20746865207a65726f2061646460008201527f7265737300000000000000000000000000000000000000000000000000000000602082015250565b60006122f060248361191c565b91506122fb82612294565b604082019050919050565b6000602082019050818103600083015261231f816122e3565b9050919050565b7f4552433732313a20617070726f766520746f2063616c6c657200000000000000600082015250565b600061235c60198361191c565b915061236782612326565b602082019050919050565b6000602082019050818103600083015261238b8161234f565b9050919050565b7f4552433732313a207472616e7366657220746f206e6f6e20455243373231526560008201527f63656976657220696d706c656d656e7465720000000000000000000000000000602082015250565b60006123ee60328361191c565b91506123f982612392565b604082019050919050565b6000602082019050818103600083015261241d816123e1565b9050919050565b7f4e487b7100000000000000000000000000000000000000000000000000000000600052601260045260246000fd5b600081519050919050565b600082825260208201905092915050565b600061247a82612453565b612484818561245e565b935061249481856020860161192d565b61249d81611957565b840191505092915050565b60006080820190506124bd6000830187611a58565b6124ca6020830186611a58565b6124d76040830185611b6e565b81810360608301526124e9818461246f565b905095945050505050565b60008151905061250381611882565b92915050565b60006020828403121561251f5761251e61184c565b5b600061252d848285016124f4565b91505092915050565b7f4552433732313a206d696e7420746f20746865207a65726f2061646472657373600082015250565b600061256c60208361191c565b915061257782612536565b602082019050919050565b6000602082019050818103600083015261259b8161255f565b9050919050565b7f4552433732313a20746f6b656e20616c7265616479206d696e74656400000000600082015250565b60006125d8601c8361191c565b91506125e3826125a2565b602082019050919050565b60006020820190508181036000830152612607816125cb565b905091905056fea26469706673582212209334ea902a60c11318ab4431e4f0f14a3ebf03ef4d6a4b08e2240e4056fc7d9d64736f6c63430008110033",
  "linkReferences": {},
  "deployedLinkReferences": {},
  "immutableReferences": {},
  "inputSourceName": "project/contracts/Lottery.sol",
  "buildInfoId": "solc-0_8_17-b481f1c1628a14e769611cdabf4be7e96d2b1f94"
}