{
  "_format": "hh3-artifact-1",
  "contractName": "LotteryTicket",
  "sourceName": "contracts/LotteryTicket.sol",
  "abi": [
    {
      "inputs": [
        {
          "internalType": "address",
          "name": "_lottery",
          "type": "address"
        }
      ],
      "stateMutability": "nonpayable",
      "type": "constructor"
    },
    {
      "anonymous": false,
      "inputs": [
        {
          "indexed": true,
          "internalType": "address",
          "name": "owner",
          "type": "address"
        },
        {
          "indexed": true,
          "internalType": "address",
          "name": "approved",
          "type": "address"
        },
        {
          "indexed": true,
          "internalType": "uint256",
          "name": "tokenId",
          "type": "uint256"
        }
      ],
      "name": "Approval",
      "type": "event"
    },
    {
      "anonymous": false,
      "inputs": [
        {
          "indexed": true,
          "internalType": "address",
          "name": "owner",
          "type": "address"
        },
        {
          "indexed": true,
          "internalType": "address",
          "name": "operator",
          "type": "address"
        },
        {
          "indexed": false,
          "internalType": "bool",
          "name": "approved",
          "type": "bool"
        }
      ],
      "name": "ApprovalForAll",
      "type": "event"
    },
    {
      "anonymous": false,
      "inputs": [
        {
          "indexed": true,
          "internalType": "address",
          "name": "from",
          "type": "address"
        },
        {
          "indexed": true,
          "internalType": "address",
          "name": "to",
          "type": "address"
        },
        {
          "indexed": true,
          "internalType": "uint256",
          "name": "tokenId",
          "type": "uint256"
        }
      ],
      "name": "Transfer",
      "type": "event"
    },
    {
      "inputs": [
        {
          "internalType": "address",
          "name": "to",
          "type": "address"
        },
        {
          "internalType": "uint256",
          "name": "tokenId",
          "type": "uint256"
        }
      ],
      "name": "approve",
      "outputs": [],
      "stateMutability": "nonpayable",
      "type": "function"
    },
    {
      "inputs": [
        {
          "internalType": "address",
          "name": "owner",
          "type": "address"
        }
      ],
      "name": "balanceOf",
      "outputs": [
        {
          "internalType": "uint256",
          "name": "",
          "type": "uint256"
        }
      ],
      "stateMutability": "view",
      "type": "function"
    },
    {
      "inputs": [
        {
          "internalType": "uint256",
          "name": "tokenId",
          "type": "uint256"
        }
      ],
      "name": "getApproved",
      "outputs": [
        {
          "internalType": "address",
          "name": "",
          "type": "address"
        }
      ],
      "stateMutability": "view",
      "type": "function"
    },
    {
      "inputs": [
        {
          "internalType": "address",
          "name": "owner",
          "type": "address"
        },
        {
          "internalType": "address",
          "name": "operator",
          "type": "address"
        }
      ],
      "name": "isApprovedForAll",
      "outputs": [
        {
          "internalType": "bool",
          "name": "",
          "type": "bool"
        }
      ],
      "stateMutability": "view",
      "type": "function"
    },
    {
      "inputs": [],
      "name": "lotteryContract",
      "outputs": [
        {
          "internalType": "address",
          "name": "",
          "type": "address"
        }
      ],
      "stateMutability": "view",
      "type": "function"
    },
    {
      "inputs": [],
      "name": "name",
      "outputs": [
        {
          "internalType": "string",
          "name": "",
          "type": "string"
        }
      ],
      "stateMutability": "view",
      "type": "function"
    },
    {
      "inputs": [
        {
          "internalType": "uint256",
          "name": "tokenId",
          "type": "uint256"
        }
      ],
      "name": "ownerOf",
      "outputs": [
        {
          "internalType": "address",
          "name": "",
          "type": "address"
        }
      ],
      "stateMutability": "view",
      "type": "function"
    },
    {
      "inputs": [
        {
          "internalType": "address",
          "name": "owner",
          "type": "address"
        },
        {
          "internalType": "uint256",
          "name": "tokenId",
          "type": "uint256"
        }
      ],
      "name": "safeMint",
      "outputs": [],
      "stateMutability": "nonpayable",
      "type": "function"
    },
    {
      "inputs": [
        {
          "internalType": "address",
          "name": "from",
          "type": "address"
        },
        {
          "internalType": "address",
          "name": "to",
          "type": "address"
        },
        {
          "internalType": "uint256",
          "name": "tokenId",
          "type": "uint256"
        }
      ],
      "name": "safeTransferFrom",
      "outputs": [],
      "stateMutability": "nonpayable",
      "type": "function"
    },
    {
      "inputs": [
        {
          "internalType": "address",
          "name": "from",
          "type": "address"
        },
        {
          "internalType": "address",
          "name": "to",
          "type": "address"
        },
        {
          "internalType": "uint256",
          "name": "tokenId",
          "type": "uint256"
        },
        {
          "internalType": "bytes",
          "name": "data",
          "type": "bytes"
        }
      ],
      "name": "safeTransferFrom",
      "outputs": [],
      "stateMutability": "nonpayable",
      "type": "function"
    },
    {
      "inputs": [
        {
          "internalType": "address",
          "name": "operator",
          "type": "address"
        },
        {
          "internalType": "bool",
          "name": "approved",
          "type": "bool"
        }
      ],
      "name": "setApprovalForAll",
      "outputs": [],
      "stateMutability": "nonpayable",
      "type": "function"
    },
    {
      "inputs": [
        {
          "internalType": "bytes4",
          "name": "interfaceId",
          "type": "bytes4"
        }
      ],
      "name": "supportsInterface",
      "outputs": [
        {
          "internalType": "bool",
          "name": "",
          "type": "bool"
        }
      ],
      "stateMutability": "view",
      "type": "function"
    },
    {
      "inputs": [],
      "name": "symbol",
      "outputs": [
        {
          "internalType": "string",
          "name": "",
          "type": "string"
        }
      ],
      "stateMutability": "view",
      "type": "function"
    },
    {
      "inputs": [
        {
          "internalType": "uint256",
          "name": "tokenId",
          "type": "uint256"
        }
      ],
      "name": "tokenURI",
      "outputs": [
        {
          "internalType": "string",
          "name": "",
          "type": "string"
        }
      ],
      "stateMutability": "view",
      "type": "function"
    },
    {
      "inputs": [
        {
          "internalType": "address",
          "name": "from",
          "type": "address"
        },
        {
          "internalType": "address",
          "name": "to",
          "type": "address"
        },
        {
          "internalType": "uint256",
          "name": "tokenId",
          "type": "uint256"
        }
      ],
      "name": "transferFrom",
      "outputs": [],
      "stateMutability": "nonpayable",
      "type": "function"
    }
  ],
  "bytecode": "0x60806040523480156200001157600080fd5b5060405162002b6238038062002b6283398181016040528101906200003791906200017b565b6040518060400160405280600e81526020017f4c6f7474657279205469636b65740000000000000000000000000000000000008152506040518060400160405280600381526020017f4c544b00000000000000000000000000000000000000000000000000000000008152508160009081620000b4919062000427565b508060019081620000c6919062000427565b50505080600660006101000a81548173ffffffffffffffffffffffffffffffffffffffff021916908373ffffffffffffffffffffffffffffffffffffffff160217905550506200050e565b600080fd5b600073ffffffffffffffffffffffffffffffffffffffff82169050919050565b6000620001438262000116565b9050919050565b620001558162000136565b81146200016157600080fd5b50565b60008151905062000175816200014a565b92915050565b60006020828403121562000194576200019362000111565b5b6000620001a48482850162000164565b91505092915050565b600081519050919050565b7f4e487b7100000000000000000000000000000000000000000000000000000000600052604160045260246000fd5b7f4e487b7100000000000000000000000000000000000000000000000000000000600052602260045260246000fd5b600060028204905060018216806200022f57607f821691505b602082108103620002455762000244620001e7565b5b50919050565b60008190508160005260206000209050919050565b60006020601f8301049050919050565b600082821b905092915050565b600060088302620002af7fffffffffffffffffffffffffffffffffffffffffffffffffffffffffffffffff8262000270565b620002bb868362000270565b95508019841693508086168417925050509392505050565b6000819050919050565b6000819050919050565b60006200030862000302620002fc84620002d3565b620002dd565b620002d3565b9050919050565b6000819050919050565b6200032483620002e7565b6200033c62000333826200030f565b8484546200027d565b825550505050565b600090565b6200035362000344565b6200036081848462000319565b505050565b5b8181101562000388576200037c60008262000349565b60018101905062000366565b5050565b601f821115620003d757620003a1816200024b565b620003ac8462000260565b81016020851015620003bc578190505b620003d4620003cb8562000260565b83018262000365565b50505b505050565b600082821c905092915050565b6000620003fc60001984600802620003dc565b1980831691505092915050565b6000620004178383620003e9565b9150826002028217905092915050565b6200043282620001ad565b67ffffffffffffffff8111156200044e576200044d620001b8565b5b6200045a825462000216565b620004678282856200038c565b600060209050601f8311600181146200049f57600084156200048a578287015190505b62000496858262000409565b86555062000506565b601f198416620004af866200024b565b60005b82811015620004d957848901518255600182019150602085019450602081019050620004b2565b86831015620004f95784890151620004f5601f891682620003e9565b8355505b6001600288020188555050505b505050505050565b612644806200051e6000396000f3fe608060405234801561001057600080fd5b50600436106100f55760003560e01c806370a0823111610097578063b29c662a11610066578063b29c662a14610282578063b88d4fde146102a0578063c87b56dd146102bc578063e985e9c5146102ec576100f5565b806370a08231146101fc57806395d89b411461022c578063a14481941461024a578063a22cb46514610266576100f5565b8063095ea7b3116100d3578063095ea7b31461017857806323b872dd1461019457806342842e0e146101b05780636352211e146101cc576100f5565b806301ffc9a7146100fa57806306fdde031461012a578063081812fc14610148575b600080fd5b610114600480360381019061010f91906118ae565b61031c565b60405161012191906118f6565b60405180910390f35b6101326103fe565b60405161013f91906119a1565b60405180910390f35b610162600480360381019061015d91906119f9565b610490565b60405161016f9190611a67565b60405180910390f35b610192600480360381019061018d9190611aae565b6104d6565b005b6101ae60048036038101906101a99190611aee565b6105ed565b005b6101ca60048036038101906101c59190611aee565b61064d565b005b6101e660048036038101906101e191906119f9565b61066d565b6040516101f39190611a67565b60405180910390f35b61021660048036038101906102119190611b41565b6106f3565b6040516102239190611b7d565b60405180910390f35b6102346107aa565b60405161024191906119a1565b60405180910390f35b610264600480360381019061025f9190611aae565b61083c565b005b610280600480360381019061027b9190611bc4565b6108da565b005b61028a6108f0565b6040516102979190611a67565b60405180910390f35b6102ba60048036038101906102b59190611d39565b610916565b005b6102d660048036038101906102d191906119f9565b610978565b6040516102e391906119a1565b60405180910390f35b61030660048036038101906103019190611dbc565b6109e0565b60405161031391906118f6565b60405180910390f35b60007f80ac58cd000000000000000000000000000000000000000000000000000000007bffffffffffffffffffffffffffffffffffffffffffffffffffffffff1916827bffffffffffffffffffffffffffffffffffffffffffffffffffffffff191614806103e757507f5b5e139f000000000000000000000000000000000000000000000000000000007bffffffffffffffffffffffffffffffffffffffffffffffffffffffff1916827bffffffffffffffffffffffffffffffffffffffffffffffffffffffff1916145b806103f757506103f682610a74565b5b9050919050565b60606000805461040d90611e2b565b80601f016020809104026020016040519081016040528092919081815260200182805461043990611e2b565b80156104865780601f1061045b57610100808354040283529160200191610486565b820191906000526020600020905b81548152906001019060200180831161046957829003601f168201915b5050505050905090565b600061049b82610ade565b6004600083815260200190815260200160002060009054906101000a900473ffffffffffffffffffffffffffffffffffffffff169050919050565b60006104e18261066d565b90508073ffffffffffffffffffffffffffffffffffffffff168373ffffffffffffffffffffffffffffffffffffffff1603610551576040517f08c379a000000000000000000000000000000000000000000000000000000000815260040161054890611ece565b60405180910390fd5b8073ffffffffffffffffffffffffffffffffffffffff16610570610b29565b73ffffffffffffffffffffffffffffffffffffffff16148061059f575061059e81610599610b29565b6109e0565b5b6105de576040517f08c379a00000000000000000000000000000000000000000000000000000000081526004016105d590611f60565b60405180910390fd5b6105e88383610b31565b505050565b6105fe6105f8610b29565b82610bea565b61063d576040517f08c379a000000000000000000000000000000000000000000000000000000000815260040161063490611ff2565b60405180910390fd5b610648838383610c7f565b505050565b61066883838360405180602001604052806000815250610916565b505050565b60008061067983610f78565b9050600073ffffffffffffffffffffffffffffffffffffffff168173ffffffffffffffffffffffffffffffffffffffff16036106ea576040517f08c379a00000000000000000000000000000000000000000000000000000000081526004016106e19061205e565b60405180910390fd5b80915050919050565b60008073ffffffffffffffffffffffffffffffffffffffff168273ffffffffffffffffffffffffffffffffffffffff1603610763576040517f08c379a000000000000000000000000000000000000000000000000000000000815260040161075a906120f0565b60405180910390fd5b600360008373ffffffffffffffffffffffffffffffffffffffff1673ffffffffffffffffffffffffffffffffffffffff168152602001908152602001600020549050919050565b6060600180546107b990611e2b565b80601f01602080910402602001604051908101604052809291908181526020018280546107e590611e2b565b80156108325780601f1061080757610100808354040283529160200191610832565b820191906000526020600020905b81548152906001019060200180831161081557829003601f168201915b5050505050905090565b600660009054906101000a900473ffffffffffffffffffffffffffffffffffffffff1673ffffffffffffffffffffffffffffffffffffffff163373ffffffffffffffffffffffffffffffffffffffff16146108cc576040517f08c379a00000000000000000000000000000000000000000000000000000000081526004016108c390612182565b60405180910390fd5b6108d68282610fb5565b5050565b6108ec6108e5610b29565b8383610fd3565b5050565b600660009054906101000a900473ffffffffffffffffffffffffffffffffffffffff1681565b610927610921610b29565b83610bea565b610966576040517f08c379a000000000000000000000000000000000000000000000000000000000815260040161095d90611ff2565b60405180910390fd5b6109728484848461113f565b50505050565b606061098382610ade565b600061098d61119b565b905060008151116109ad57604051806020016040528060008152506109d8565b806109b7846111b2565b6040516020016109c89291906121de565b6040516020818303038152906040525b915050919050565b6000600560008473ffffffffffffffffffffffffffffffffffffffff1673ffffffffffffffffffffffffffffffffffffffff16815260200190815260200160002060008373ffffffffffffffffffffffffffffffffffffffff1673ffffffffffffffffffffffffffffffffffffffff16815260200190815260200160002060009054906101000a900460ff16905092915050565b60007f01ffc9a7000000000000000000000000000000000000000000000000000000007bffffffffffffffffffffffffffffffffffffffffffffffffffffffff1916827bffffffffffffffffffffffffffffffffffffffffffffffffffffffff1916149050919050565b610ae781611280565b610b26576040517f08c379a0000000000000000000000000000000000000000000000000000000008152600401610b1d9061205e565b60405180910390fd5b50565b600033905090565b816004600083815260200190815260200160002060006101000a81548173ffffffffffffffffffffffffffffffffffffffff021916908373ffffffffffffffffffffffffffffffffffffffff160217905550808273ffffffffffffffffffffffffffffffffffffffff16610ba48361066d565b73ffffffffffffffffffffffffffffffffffffffff167f8c5be1e5ebec7d5bd14f71427d1e84f3dd0314c0f7b2291e5b200ac8c7c3b92560405160405180910390a45050565b600080610bf68361066d565b90508073ffffffffffffffffffffffffffffffffffffffff168473ffffffffffffffffffffffffffffffffffffffff161480610c385750610c3781856109e0565b5b80610c7657508373ffffffffffffffffffffffffffffffffffffffff16610c5e84610490565b73ffffffffffffffffffffffffffffffffffffffff16145b91505092915050565b8273ffffffffffffffffffffffffffffffffffffffff16610c9f8261066d565b73ffffffffffffffffffffffffffffffffffffffff1614610cf5576040517f08c379a0000000000000000000000000000000000000000000000000000000008152600401610cec90612274565b60405180910390fd5b600073ffffffffffffffffffffffffffffffffffffffff168273ffffffffffffffffffffffffffffffffffffffff1603610d64576040517f08c379a0000000000000000000000000000000000000000000000000000000008152600401610d5b90612306565b60405180910390fd5b610d7183838360016112c1565b8273ffffffffffffffffffffffffffffffffffffffff16610d918261066d565b73ffffffffffffffffffffffffffffffffffffffff1614610de7576040517f08c379a0000000000000000000000000000000000000000000000000000000008152600401610dde90612274565b60405180910390fd5b6004600082815260200190815260200160002060006101000a81549073ffffffffffffffffffffffffffffffffffffffff02191690556001600360008573ffffffffffffffffffffffffffffffffffffffff1673ffffffffffffffffffffffffffffffffffffffff168152602001908152602001600020600082825403925050819055506001600360008473ffffffffffffffffffffffffffffffffffffffff1673ffffffffffffffffffffffffffffffffffffffff16815260200190815260200160002060008282540192505081905550816002600083815260200190815260200160002060006101000a81548173ffffffffffffffffffffffffffffffffffffffff021916908373ffffffffffffffffffffffffffffffffffffffff160217905550808273ffffffffffffffffffffffffffffffffffffffff168473ffffffffffffffffffffffffffffffffffffffff167fddf252ad1be2c89b69c2b068fc378daa952ba7f163c4a11628f55a4df523b3ef60405160405180910390a4610f7383838360016112c7565b505050565b60006002600083815260200190815260200160002060009054906101000a900473ffffffffffffffffffffffffffffffffffffffff169050919050565b610fcf8282604051806020016040528060008152506112cd565b5050565b8173ffffffffffffffffffffffffffffffffffffffff168373ffffffffffffffffffffffffffffffffffffffff1603611041576040517f08c379a000000000000000000000000000000000000000000000000000000000815260040161103890612372565b60405180910390fd5b80600560008573ffffffffffffffffffffffffffffffffffffffff1673ffffffffffffffffffffffffffffffffffffffff16815260200190815260200160002060008473ffffffffffffffffffffffffffffffffffffffff1673ffffffffffffffffffffffffffffffffffffffff16815260200190815260200160002060006101000a81548160ff0219169083151502179055508173ffffffffffffffffffffffffffffffffffffffff168373ffffffffffffffffffffffffffffffffffffffff167f17307eab39ab6107e8899845ad3d59bd9653f200f220920489ca2b5937696c318360405161113291906118f6565b60405180910390a3505050565b61114a848484610c7f565b61115684848484611328565b611195576040517f08c379a000000000000000000000000000000000000000000000000000000000815260040161118c90612404565b60405180910390fd5b50505050565b606060405180602001604052806000815250905090565b6060600060016111c1846114af565b01905060008167ffffffffffffffff8111156111e0576111df611c0e565b5b6040519080825280601f01601f1916602001820160405280156112125781602001600182028036833780820191505090505b509050600082602001820190505b600115611275578080600190039150507f3031323334353637383961626364656600000000000000000000000000000000600a86061a8153600a858161126957611268612424565b5b04945060008503611220575b819350505050919050565b60008073ffffffffffffffffffffffffffffffffffffffff166112a283610f78565b73ffffffffffffffffffffffffffffffffffffffff1614159050919050565b50505050565b50505050565b6112d78383611602565b6112e46000848484611328565b611323576040517f08c379a000000000000000000000000000000000000000000000000000000000815260040161131a90612404565b60405180910390fd5b505050565b60006113498473ffffffffffffffffffffffffffffffffffffffff1661181f565b156114a2578373ffffffffffffffffffffffffffffffffffffffff1663150b7a02611372610b29565b8786866040518563ffffffff1660e01b815260040161139494939291906124a8565b6020604051808303816000875af19250505080156113d057506040513d601f19601f820116820180604052508101906113cd9190612509565b60015b611452573d8060008114611400576040519150601f19603f3d011682016040523d82523d6000602084013e611405565b606091505b50600081510361144a576040517f08c379a000000000000000000000000000000000000000000000000000000000815260040161144190612404565b60405180910390fd5b805181602001fd5b63150b7a0260e01b7bffffffffffffffffffffffffffffffffffffffffffffffffffffffff1916817bffffffffffffffffffffffffffffffffffffffffffffffffffffffff1916149150506114a7565b600190505b949350505050565b600080600090507a184f03e93ff9f4daa797ed6e38ed64bf6a1f010000000000000000831061150d577a184f03e93ff9f4daa797ed6e38ed64bf6a1f010000000000000000838161150357611502612424565b5b0492506040810190505b6d04ee2d6d415b85acef8100000000831061154a576d04ee2d6d415b85acef810000000083816115405761153f612424565b5b0492506020810190505b662386f26fc10000831061157957662386f26fc10000838161156f5761156e612424565b5b0492506010810190505b6305f5e10083106115a2576305f5e100838161159857611597612424565b5b0492506008810190505b61271083106115c75761271083816115bd576115bc612424565b5b0492506004810190505b606483106115ea57606483816115e0576115df612424565b5b0492506002810190505b600a83106115f9576001810190505b80915050919050565b600073ffffffffffffffffffffffffffffffffffffffff168273ffffffffffffffffffffffffffffffffffffffff1603611671576040517f08c379a000000000000000000000000000000000000000000000000000000000815260040161166890612582565b60405180910390fd5b61167a81611280565b156116ba576040517f08c379a00000000000000000000000000000000000000000000000000000000081526004016116b1906125ee565b60405180910390fd5b6116c86000838360016112c1565b6116d181611280565b15611711576040517f08c379a0000000000000000000000000000000000000000000000000000000008152600401611708906125ee565b60405180910390fd5b6001600360008473ffffffffffffffffffffffffffffffffffffffff1673ffffffffffffffffffffffffffffffffffffffff16815260200190815260200160002060008282540192505081905550816002600083815260200190815260200160002060006101000a81548173ffffffffffffffffffffffffffffffffffffffff021916908373ffffffffffffffffffffffffffffffffffffffff160217905550808273ffffffffffffffffffffffffffffffffffffffff16600073ffffffffffffffffffffffffffffffffffffffff167fddf252ad1be2c89b69c2b068fc378daa952ba7f163c4a11628f55a4df523b3ef60405160405180910390a461181b6000838360016112c7565b5050565b6000808273ffffffffffffffffffffffffffffffffffffffff163b119050919050565b6000604051905090565b600080fd5b600080fd5b60007fffffffff0000000000000000000000000000000000000000000000000000000082169050919050565b61188b81611856565b811461189657600080fd5b50565b6000813590506118a881611882565b92915050565b6000602082840312156118c4576118c361184c565b5b60006118d284828501611899565b91505092915050565b60008115159050919050565b6118f0816118db565b82525050565b600060208201905061190b60008301846118e7565b92915050565b600081519050919050565b600082825260208201905092915050565b60005b8381101561194b578082015181840152602081019050611930565b60008484015250505050565b6000601f19601f8301169050919050565b600061197382611911565b61197d818561191c565b935061198d81856020860161192d565b61199681611957565b840191505092915050565b600060208201905081810360008301526119bb8184611968565b905092915050565b6000819050919050565b6119d6816119c3565b81146119e157600080fd5b50565b6000813590506119f3816119cd565b92915050565b600060208284031215611a0f57611a0e61184c565b5b6000611a1d848285016119e4565b91505092915050565b600073ffffffffffffffffffffffffffffffffffffffff82169050919050565b6000611a5182611a26565b9050919050565b611a6181611a46565b82525050565b6000602082019050611a7c6000830184611a58565b92915050565b611a8b81611a46565b8114611a9657600080fd5b50565b600081359050611aa881611a82565b92915050565b60008060408385031215611ac557611ac461184c565b5b6000611ad385828601611a99565b9250506020611ae4858286016119e4565b9150509250929050565b600080600060608486031215611b0757611b0661184c565b5b6000611b1586828701611a99565b9350506020611b2686828701611a99565b9250506040611b37868287016119e4565b9150509250925092565b600060208284031215611b5757611b5661184c565b5b6000611b6584828501611a99565b91505092915050565b611b77816119c3565b82525050565b6000602082019050611b926000830184611b6e565b92915050565b611ba1816118db565b8114611bac57600080fd5b50565b600081359050611bbe81611b98565b92915050565b60008060408385031215611bdb57611bda61184c565b5b6000611be985828601611a99565b9250506020611bfa85828601611baf565b9150509250929050565b600080fd5b600080fd5b7f4e487b7100000000000000000000000000000000000000000000000000000000600052604160045260246000fd5b611c4682611957565b810181811067ffffffffffffffff82111715611c6557611c64611c0e565b5b80604052505050565b6000611c78611842565b9050611c848282611c3d565b919050565b600067ffffffffffffffff821115611ca457611ca3611c0e565b5b611cad82611957565b9050602081019050919050565b82818337600083830152505050565b6000611cdc611cd784611c89565b611c6e565b905082815260208101848484011115611cf857611cf7611c09565b5b611d03848285611cba565b509392505050565b600082601f830112611d2057611d1f611c04565b5b8135611d30848260208601611cc9565b91505092915050565b60008060008060808587031215611d5357611d5261184c565b5b6000611d6187828801611a99565b9450506020611d7287828801611a99565b9350506040611d83878288016119e4565b925050606085013567ffffffffffffffff811115611da457611da3611851565b5b611db087828801611d0b565b91505092959194509250565b60008060408385031215611dd357611dd261184c565b5b6000611de185828601611a99565b9250506020611df285828601611a99565b9150509250929050565b7f4e487b7100000000000000000000000000000000000000000000000000000000600052602260045260246000fd5b60006002820490506001821680611e4357607f821691505b602082108103611e5657611e55611dfc565b5b50919050565b7f4552433732313a20617070726f76616c20746f2063757272656e74206f776e6560008201527f7200000000000000000000000000000000000000000000000000000000000000602082015250565b6000611eb860218361191c565b9150611ec382611e5c565b604082019050919050565b60006020820190508181036000830152611ee781611eab565b9050919050565b7f4552433732313a20617070726f76652063616c6c6572206973206e6f7420746f60008201527f6b656e206f776e6572206f7220617070726f76656420666f7220616c6c000000602082015250565b6000611f4a603d8361191c565b9150611f5582611eee565b604082019050919050565b60006020820190508181036000830152611f7981611f3d565b9050919050565b7f4552433732313a2063616c6c6572206973206e6f7420746f6b656e206f776e6560008201527f72206f7220617070726f76656400000000000000000000000000000000000000602082015250565b6000611fdc602d8361191c565b9150611fe782611f80565b604082019050919050565b6000602082019050818103600083015261200b81611fcf565b9050919050565b7f4552433732313a20696e76616c696420746f6b656e2049440000000000000000600082015250565b600061204860188361191c565b915061205382612012565b602082019050919050565b600060208201905081810360008301526120778161203b565b9050919050565b7f4552433732313a2061646472657373207a65726f206973206e6f74206120766160008201527f6c6964206f776e65720000000000000000000000000000000000000000000000602082015250565b60006120da60298361191c565b91506120e58261207e565b604082019050919050565b60006020820190508181036000830152612109816120cd565b9050919050565b7f4f6e6c79206c6f747465727920636f6e74726163742063616e206d696e74207460008201527f69636b6574730000000000000000000000000000000000000000000000000000602082015250565b600061216c60268361191c565b915061217782612110565b604082019050919050565b6000602082019050818103600083015261219b8161215f565b9050919050565b600081905092915050565b60006121b882611911565b6121c281856121a2565b93506121d281856020860161192d565b80840191505092915050565b60006121ea82856121ad565b91506121f682846121ad565b91508190509392505050565b7f4552433732313a207472616e736665722066726f6d20696e636f72726563742060008201527f6f776e6572000000000000000000000000000000000000000000000000000000602082015250565b600061225e60258361191c565b915061226982612202565b604082019050919050565b6000602082019050818103600083015261228d81612251565b9050919050565b7f4552433732313a207472616e7366657220746f20746865207a65726f2061646460008201527f7265737300000000000000000000000000000000000000000000000000000000602082015250565b60006122f060248361191c565b91506122fb82612294565b604082019050919050565b6000602082019050818103600083015261231f816122e3565b9050919050565b7f4552433732313a20617070726f766520746f2063616c6c657200000000000000600082015250565b600061235c60198361191c565b915061236782612326565b602082019050919050565b6000602082019050818103600083015261238b8161234f565b9050919050565b7f4552433732313a207472616e7366657220746f206e6f6e20455243373231526560008201527f63656976657220696d706c656d656e7465720000000000000000000000000000602082015250565b60006123ee60328361191c565b91506123f982612392565b604082019050919050565b6000602082019050818103600083015261241d816123e1565b9050919050565b7f4e487b7100000000000000000000000000000000000000000000000000000000600052601260045260246000fd5b600081519050919050565b600082825260208201905092915050565b600061247a82612453565b612484818561245e565b935061249481856020860161192d565b61249d81611957565b840191505092915050565b60006080820190506124bd6000830187611a58565b6124ca6020830186611a58565b6124d76040830185611b6e565b81810360608301526124e9818461246f565b905095945050505050565b60008151905061250381611882565b92915050565b60006020828403121561251f5761251e61184c565b5b600061252d848285016124f4565b91505092915050565b7f4552433732313a206d696e7420746f20746865207a65726f2061646472657373600082015250565b600061256c60208361191c565b915061257782612536565b602082019050919050565b6000602082019050818103600083015261259b8161255f565b9050919050565b7f4552433732313a20746f6b656e20616c7265616479206d696e74656400000000600082015250565b60006125d8601c8361191c565b91506125e3826125a2565b602082019050919050565b60006020820190508181036000830152612607816125cb565b905091905056fea26469706673582212209334ea902a60c11318ab4431e4f0f14a3ebf03ef4d6a4b08e2240e4056fc7d9d64736f6c63430008110033",
  "linkReferences": {},
  "deployedLinkReferences": {},
  "immutableReferences": {},
  "inputSourceName": "project/contracts/LotteryTicket.sol",
  "buildInfoId": "solc-0_8_17-f19e0c3d9dbb385a1cc29cab86f12ed99f15e4c0"
}